:100000000DC1000028C1000026C1000024C100006D
:1000100022C1000020C100001EC100001CC1000060
:100020001AC1000018C1000016C100000C940D0B8D
:1000300012C1000010C100000EC100000CC1000080
:100040000AC1000008C100000C94560B0C94970BD9
:1000500002C1000000C10000FEC00000FCC00000A2
:100060000C944D09F8C00000940A6A096A096A09EB
:100070006A096A096A096A099A0A6A096A096A09B7
:100080006A096A096A096A099A0A6A096A096A09A7
:100090006A096A096A096A09BD0A6A096A096A0974
:1000A0006A096A096A096A09C0096A096A096A0962
:1000B0006A096A096A096A09BD0A6A096A096A0954
:1000C0006A096A096A096A09C0096A096A096A0942
:1000D0006A096A096A096A097B0A6A096A096A0976
:1000E0006A096A096A096A09080A6A096A096A09D9
:1000F0006A096A096A096A09C0096A096A096A0912
:100100006A096A096A096A09F3096A096A096A09CE
:100110006A096A096A096A09AB096A096A096A0906
:100120006A096A096A096A091B0A6A096A096A0985
:100130006A096A096A096A092E0A6A096A096A0962
:100140006A096A096A096A096A096A096A096A0917
:100150006A096A096A096A096A096A096A096A0907
:100160006A096A096A096A09DA0A6A096A096A0986
:100170006A096A096A096A0990096A096A096A09C1
:100180006A096A096A096A096A096A096A096A09D7
:100190006A096A096A096A096A096A096A096A09C7
:1001A0006A096A096A096A09CE096A096A096A0953
:1001B0006A096A096A096A09D1096A096A096A0940
:1001C0006A096A096A096A09640A6A096A096A099C
:1001D0006A096A096A096A09810A6A096A096A096F
:1001E0006A096A096A096A09A5096A096A096A093C
:1001F0006A096A096A096A09A50945464765666781
:1002000000202B2D2E3031323334353637383968D3
:10021000006364696E6F70737578580011241FBE97
:10022000CFEFD8E0DEBFCDBF11E0A0E0B1E0E4EC5D
:10023000F0E202C005900D92A236B107D9F723E093
:10024000A2E6B1E001C01D92A838B207E1F70E9412
:100250001A0C0C946010D4CEFFCFE7D188D092D482
:10026000C9D440E867E171E081EF92E0F5D2FC018A
:100270009093E6028093E50291E0958790931103B5
:10028000789485E091E06BC3CF92DF92EF92FF927A
:100290000F931F93CF93DF93C091E702D091E802B1
:1002A0002C813D8187EEE82E82E0F82E609184005B
:1002B000709185004091ED025091EE028B01041B7C
:1002C000150B0217130790F42AC088859985F6014B
:1002D0000995C091E702D091E8022C813D81021777
:1002E000130720F34091ED025091EE02420F531F8D
:1002F0005093EE024093ED02021B130BE881F9814B
:10030000F382E282F093E802E093E702CE80DF809E
:100310001F821E82E75EF240C1F6BFD4D6CFF2E064
:10032000C73EDF07D9F07093EE026093ED028C8137
:100330009D81801B910B9D838C838230910558F0A9
:10034000860F971FDF91CF911F910F91FF90EF9034
:10035000DF90CF90A5C482E090E0F2CFDF91CF9103
:100360001F910F91FF90EF90DF90CF900895EAEDED
:10037000F2E087EE92E096878587908B87878FEFF4
:100380009FEF928B818B148A138A0895EF92FF92CC
:100390000F931F93CF93DF937C01DC0119963C935D
:1003A0002E93189717965C934E931697209184007E
:1003B000309185006230710508F459C00091E70260
:1003C0001091E802B2E0073E1B0709F45AC0809181
:1003D000ED029091EE02281B390BEB01C20FD31FE7
:1003E000D801C217D307E0F114962D913C911597CF
:1003F000C217D30748F43EC0C21BD30BD8010D91DE
:100400001C91F801248135812C173D07A8F3D701F1
:100410000D931C93D8011296ED91FC911397D7017F
:100420001396FC93EE931297F182E082F801F38227
:10043000E2821596DC93CE931497848195818C1B70
:100440009D0B958384838FEF9FEF9093EC028093B5
:10045000EB02DF91CF911F910F91FF90EF900895E4
:1004600014968D919C911597C81BD90BC8CF62E04B
:1004700070E0A4CF8C0F9D1F13D4F8012481358127
:10048000C3CF3093EE022093ED02F092E802E092A7
:10049000E702F092EA02E092E902F7011183008399
:1004A0001383028375836483CB01820F931FDF91D3
:1004B000CF911F910F91FF90EF90E6C3CF93DF9301
:1004C000FC01A091E702B091E802A817B90709F171
:1004D000C281D3818081918199838883A081B181F8
:1004E0001396DC93CE9312971782168282E0A73E72
:1004F000B80761F014962D913C91159784819581F0
:10050000820F931F15969C938E931497DF91CF9132
:100510000895ED91FC911197F093E802E093E702C2
:1005200087EE92E09383828317961C921E92169711
:10053000E817F90729F12481358114968D919C9152
:100540001597820F931F95838483209184003091A7
:1005500085004091ED025091EE02241B350B2817C7
:100560003907A0F6BC01621B730B6230710528F0DD
:10057000840F951FDF91CF9193C3C9010296F8CFE5
:10058000DF91CF918AC3CF93DF93DC011D968C91CD
:100590001D97843099F170F5882349F1833031F447
:1005A0005096ED91FC915197118210828FEF9FEF41
:1005B00051969C938E9350971D961C921D9714965E
:1005C0002C911497EAEDF2E00190F081E02D9481F6
:1005D0009217D0F71196FC93EE93C281D3811396B4
:1005E000DC93CE931297B983A883B383A283DF9160
:1005F000CF910895853089F08730C1F61296ED913C
:10060000FC9113978D919C91119791838083CD914B
:10061000DC911197FB83EA83C9CF5096ED91FC9151
:10062000519784818F5F8483E9CFEAEDF2E0F18313
:10063000E083F383E2831482F087E783F287E18724
:100640000895CF93DF93DC011D961C921D9714969D
:100650002C911497EAEDF2E00190F081E02D948165
:100660009217D0F71196FC93EE93C281D381139623
:10067000DC93CE931297B983A883B383A283CD0171
:10068000DF91CF910895CF93DF93EAEDF2E0638598
:100690007485DB011D968C9380819181EC01A8818A
:1006A000B981B183A0831396FC93EE93129794873C
:1006B000838721E02D87ABD2DF91CF9108951F93DF
:1006C000CF93DF93CDB7DEB72A970FB6F894DEBF8E
:1006D0000FBECDBF182F6F3F8FEF780711F120911C
:1006E000E5023091E60243EC52E0CE0101964EDE87
:1006F000812FC9DF8F819885892B19F0CE01019652
:10070000DDDEE091E502F091E602808991892A968A
:100710000FB6F894DEBF0FBECDBFDF91CF911F9112
:100720000895812FB0DFEDCFCF93DF93DC01C0912F
:10073000E502D091E60251967C936E935097149601
:100740002C9114978C818217D8F01D961C921D97BE
:10075000EAEDF2E00190F081E02D94819217D0F75C
:100760001196FC93EE93C281D3811396DC93CE93C2
:100770001297B983A883B383A283DF91CF910895A1
:100780001D86EAEDF2E00190F081E02D948198174A
:10079000D0F7CD01F983E883A281B381BB83AA831B
:1007A000CD93DC93D383C2839093E6028093E502DA
:1007B00021E0FC012587BE012AD2DF91CF91089567
:1007C000A091DA02B091DB02E091E502F091E6023D
:1007D00081E014962C919481921708F080E008959E
:1007E000CF93DF93A091E502B091E6024091DA0247
:1007F0005091DB02EA01E881F981F093DB02E0939A
:10080000DA028AED92E0938382835093E60240936A
:10081000E50281E08D871D961C921D9714962C9100
:10082000149703C00190F081E02D94812917D0F333
:100830001196FC93EE938281938113969C938E93F1
:100840001297EC01B983A883B383A283BD01CA01C7
:10085000DED1DF91CF910895CF93DF93FC014483E4
:1008600082E085871686438F128E118E108E81E06E
:10087000878774876387AAEDB2E0B087A78319964C
:10088000CD91DC911A97D287C187F887EF831A96AA
:10089000FC93EE931997CF014296938B828B02962D
:1008A000958B848B978B868BCF01DF91CF910895A9
:1008B000CF93DF93EC014C815D81FA017C97CA01F3
:1008C000C197968385832F81DC0152962C93529792
:1008D000288551962C935197298550962C935097A3
:1008E0002A851F962C931F9726E336E053963C9358
:1008F000539754962C938E8128813981848392E07A
:1009000095871686838F128E118E108E81E08787D1
:1009100034872387CAEDD2E0D087C78389859A853B
:1009200092878187DC011896FC93EE931797FA87DC
:10093000E987EA012A97D983C883DA0118970B2E31
:1009400011960C921197AC930A2E1B2E13961C92A3
:100950000E9211241297CF01DF91CF910895CF937A
:10096000DF93F894A5DFEC0160E070E0DDDE7894C1
:10097000CE01DF91CF9108950F931F93CF93DF9313
:10098000F8946C517109EC01C60FD71FFE017597E1
:10099000FE83ED83228B318B008B178786E396E0F5
:1009A000938B848B4C8382E08D871E864B8F1A8EAF
:1009B000198E188E81E08F8780E191E09C878B876C
:1009C000EAEDF2E0F887EF83A185B285BA87A987BF
:1009D0001896DC93CE931797D287C187CE014296A3
:1009E0009B8B8A8B02969D8B8C8B9F8B8E8B60E072
:1009F00070E0CE0199DE7894CE01DF91CF911F9106
:100A00000F9108950F931F93CF93DF93C091E50249
:100A1000D091E602998B888B8E010E5E1F4F8A89DA
:100A20009B890817190759F0FC01208131813B8B04
:100A30002A8B07DE8A899B8980179107A9F78F8502
:100A400081110CC0E985FA858F819885908787830D
:100A5000AF81B8851A96FC93EE9319978FE0DF91DA
:100A6000CF911F910F910FCEF894CCCFF894BC0189
:100A700088E025DE78940895DC01ED91FC911197D2
:100A8000309731F01D921C92718B608BCF01D9CDC4
:100A90000895CF93DF936115710599F0E091E50218
:100AA000F091E60291838083EC01AA81BB81B3833C
:100AB000A283ED93FC93FB83EA8384E0DF91CF91E3
:100AC000FECD8FEF9FEFDF91CF910895CF93DF930E
:100AD000FC0180819181E817F90771F0EC01A88190
:100AE000B981B183A0831396FC93EE931297798B0F
:100AF000688BDF91CF91A5CDDF91CF910895FC0157
:100B00009183808393838283158214820895FC01EC
:100B1000908D692B608F85858A3059F08B3009F074
:100B20000895808968238613FBCF118A108ACF012C
:100B300088CD80896823C9F70895EF92FF921F93AB
:100B4000CF93DF937C01162FFC01C081D1818C17DC
:100B50009D0791F08D81812B8D83112319F08E815A
:100B6000812321F06C818A819B81D1DF0990D8811A
:100B7000C02DEC16FD0671F7DF91CF911F91FF900C
:100B8000EF900895EDE0F3E082E691E091838083B9
:100B900082EE91E0938382830895F8949B01215023
:100BA0003109719561957109E0910D03F0910E0382
:100BB0004E0F5F1F420F531F46235723820F931F71
:100BC00068237923CA01860F971F20910F03309164
:100BD00010032817390750F08E179F0738F09093AD
:100BE0000E0380930D03CA017894089580E090E08D
:100BF00078940895E2EEF1E08DEC95E091838083A6
:100C0000138212821582148288EE91E078CF2F929F
:100C10003F924F925F926F927F928F929F92AF928C
:100C2000BF92CF92DF92EF92FF920F931F93CF93D9
:100C3000DF93FB010DB605820EB60682FC0105802E
:100C40000DBE06800EBEDF91CF911F910F91FF90D8
:100C5000EF90DF90CF90BF90AF909F908F907F905C
:100C60006F905F904F903F902F9008957894C201BD
:100C7000F1010995F9CE02D384E491E000D366D264
:100C800088D2C4D500C0F5C49093890080938800B1
:100C900082E086BB80936F00089510926F000895E4
:100CA00090938900809388000895AF92BF92CF926D
:100CB000DF92EF92FF920F931F93CF93DF93EC019C
:100CC0006B018A018C819D818417950710F40C813A
:100CD0001D816C857D85E884F984E61AF70A0E1576
:100CE0001F0598F1E016F106D0F0A801C6010E9498
:100CF000630F8E819F819D878C878C819D81801B56
:100D0000910B9D838C83C801DF91CF911F910F912F
:100D1000FF90EF90DF90CF90BF90AF900895A70124
:100D2000C6010E94630F5801AE18BF086E817F8113
:100D3000A501C6018E0D9F1D0E94630F8E819F81AC
:100D4000A80EB91EBD86AC86D8CFA801C6010E94E8
:100D5000630F8C859D85800F911F9D878C87CDCFDC
:100D6000AF92BF92CF92DF92EF92FF920F931F93B9
:100D7000CF93DF93EC016B018A018C819D818417F5
:100D8000950710F40C811D818A859B85E884F98480
:100D9000E81AF90A0E151F0598F1E016F106D0F0D1
:100DA000A801B6010E94630F8E819F819B878A876D
:100DB0008C819D81801B910B9D838C83C801DF9169
:100DC000CF911F910F91FF90EF90DF90CF90BF9048
:100DD000AF900895A701B6010E94630F5801AE18A5
:100DE000BF08B6016E0D7F1DA5018E819F810E94F7
:100DF000630F8E819F81A80EB91EBB86AA86D8CFAD
:100E0000A801B6010E94630F8A859B85800F911F00
:100E10009B878A87CDCF0F931F93FC01918380839B
:100E200093838283158214827783668375876487B0
:100E300073876287640F751F71876087378726877E
:100E4000118B008B1F910F910895FC01A285B38532
:100E500084859585A817B907E1F08481958101966D
:100E600095838483CD010196938782876C93228535
:100E70003385808591852817390720F086819781F1
:100E800093878287CF0160E070E020DE80E090E011
:100E9000089584819581892B01F38FEF9FEF089549
:100EA0000F931F93CF93DF93EC018B01F89405C050
:100EB000B801CE01EEDD97FD27C08C819D81892B85
:100EC000B9F38C819D8101979D838C83EC85FD8591
:100ED000CF0101969D878C871081288539858217DF
:100EE000930720F08E819F819D878C87EE85FF85FB
:100EF000309711F0CE0109957894812F90E0DF9121
:100F0000CF911F910F9108957894DF91CF911F9108
:100F10000F9108956F927F928F929F92AF92BF929E
:100F2000CF92DF92EF92FF920F931F93CF93DF93B5
:100F30006C017B013A014901FC01A684B784F89455
:100F400041155105B9F08A01A801B701C601ADDE0E
:100F5000EC01892B21F1A114B10419F0C601F501AE
:100F6000099578940C1B1D0BEC0EFD1EF8940115D1
:100F7000110551F700E010E07894C301801B910B3C
:100F8000DF91CF911F910F91FF90EF90DF90CF9065
:100F9000BF90AF909F908F907F906F900895B40115
:100FA000C60177DD892B81F2E7CF0F931F93FC01F8
:100FB000918380839383828355834483778366837D
:100FC0007587648773876287460F571F51874087ED
:100FD00037872687118B008B1F910F910895FF9201
:100FE0000F931F93CF93DF93EC01F62E8A01F894B1
:100FF00005C0B801CE014DDD97FD2AC08C819D81D1
:10100000892BB9F38C819D8101979D838C83EA851F
:10101000FB85CF0101969B878A87F0822A853B85D5
:10102000888599852817390720F08E819F819B87B5
:101030008A87EE85FF85309711F0CE010995789467
:1010400080E090E0DF91CF911F910F91FF90089584
:101050007894DF91CF911F910F91FF900895CF93D6
:10106000FC01A485B585828593858A179B07E1F0ED
:1010700084819581019695838483CD01019695871E
:101080008487CC91208531858217930740F4CF0166
:1010900060E070E01BDD8C2F90E0CF910895868199
:1010A000978195878487F3CF84819581892B01F37C
:1010B0008FEF9FEFF2CF6F927F928F929F92AF92BE
:1010C000BF92CF92DF92EF92FF920F931F93CF9335
:1010D000DF936C017B013A014901FC01A684B784CE
:1010E000F89441155105B9F08A01A801B701C6016C
:1010F00037DEEC01892B21F1A114B10419F0C601EE
:10110000F501099578940C1B1D0BEC0EFD1EF8944F
:101110000115110551F700E010E07894C301801B20
:10112000910BDF91CF911F910F91FF90EF90DF9086
:10113000CF90BF90AF909F908F907F906F900895C9
:10114000B401C601A6DC892B81F2E7CF5EC221E0A3
:10115000FC012083128211820496D1CC0596DACE4E
:101160002FEF3FEF0596D6CE4796A5CF2FEF3FEF57
:101170004796A1CF059694CE6FEF7FEF059690CE60
:1011800047962DCF4FEF5FEF479629CF80E090E055
:10119000089504C3EF92FF920F931F93CF93DF93B1
:1011A000EC019B017A01FC018DE291E08193919326
:1011B000FB83EA8381E08C83BE01675D7F4F8E01F4
:1011C00040E150E0CE01059626DEBE01675C7F4F10
:1011D000970140E150E0CE014796E7DEDF91CF91E5
:1011E0001F910F91FF90EF900895CF93DF93EC0143
:1011F000F894DBD282E08C837894DF91CF910895CC
:101200001F93CF93DF93EC01162F89859A85892B45
:1012100051F0612FCE01059618DE97FD0EC0DF91CB
:10122000CF911F91089564E0CE01029686DC612F74
:10123000CE0105960ADE97FFF2CF60E0CE0102965E
:10124000DF91CF911F9179CC0F931F93CF93DF93B1
:101250008C01479604DFEC0197FD06C0CE01DF91BB
:10126000CF911F910F91089568E0C801029665DC47
:10127000CE01DF91CF911F910F9108950895FC0148
:10128000808185B9818184B9828188B9838187B958
:1012900084818BB985818AB908951F920F920FB608
:1012A0000F9211242F933F934F935F936F937F93EC
:1012B0008F939F93AF93BF93EF93FF9381E08093BE
:1012C00011038091B900E82FE87F8E2F90E0893CD0
:1012D000910510F184E98093BC006EEF7FEF8EE101
:1012E00093E0CADB8091150381114FC01092110366
:1012F00067DA811175DAFF91EF91BF91AF919F91FC
:101300008F917F916F915F914F913F912F910F90AE
:101310000FBE0F901F901895FC01EC5CFF4F83C52A
:10132000409127035091280380912B0390912C0327
:101330009C012F5F3F4F30932C0320932B03209170
:10134000BB00FA01E80FF91F208381EC8093BC00F9
:1013500080911503C9CF2091BB00E0912703F09144
:10136000280380912B0390912C03E80FF91F208311
:1013700084E98093BC0060E070E08EE193E07CDB68
:101380008091150384608093150384E98093BC00E9
:101390006EEF7FEF8EE193E06FDBA8CF81EC80935F
:1013A000BC00E0912103F0912203809125039091EC
:1013B0002603E80FF91F20812093BB00209123030F
:1013C00030912403215031098217930709F440C05A
:1013D0000196909326038093250381EC8093BC00B3
:1013E0008091150381CF409127035091280380916C
:1013F0002B0390912C039C012F5F3F4F30932C03C4
:1014000020932B032091BB00FA01E80FF91F2083E2
:101410008091290390912A03019720912B03309109
:101420002C032817390709F4A2C085EC8093BC006F
:101430008091150359CF8091290390912A03019738
:1014400020912B0330912C032817390709F07DCF09
:1014500081E88093BC008091150346CF2091290339
:1014600030912A032150310980912B0390912C0354
:101470008217930709F4BAC021EC2093BC00409175
:101480002703509128039C012F5F3F4F30932C037B
:1014900020932B032091BB00FA01E80FF91F208352
:1014A00080912B0390912C032091290330912A03E2
:1014B000215031098217930709F459C0019690937E
:1014C0002C0380932B03B1CFE0912103F0912203F1
:1014D0002091250330912603E20FF31F8081809332
:1014E000BB008091230390912403019728173907AB
:1014F00009F02BCFADCF8091150382608093150347
:1015000044CF409121035091220380912503909173
:1015100026039C012F5F3F4F309326032093250322
:10152000FA01E80FF91FDACF8091150381608093EB
:1015300015032BCF80912003880F8093BB008091EF
:10154000210390912203892B69F0809123039091CC
:101550002403009739F02091250330912603821748
:10156000930729F48091BB0081608093BB0085E8DC
:101570008093BC0080911503B7CE80912503909194
:101580002603209123033091240382179307B8F098
:101590008091270390912803892B61F18091290381
:1015A00090912A03892B31F185EA8093BC008091C8
:1015B00015039ACE80912B0390912C0360CF20913C
:1015C000210330912203AC014F5F5F4F50932603FC
:1015D00040932503F901E80FF91F80818093BB0038
:1015E00085E88093BC00809115037ECE21E820938E
:1015F000BC0045CF84E98093BC0060E070E08EE1E0
:1016000093E03ADA809115036FCE82E193E09FDD9B
:1016100010921F0310921E0308951F920F920FB68F
:101620000F9211242F933F934F935F936F937F9368
:101630008F939F93AF93BF93EF93FF9381E080933A
:1016400011030E94440110921103BAD88111C8D825
:10165000FF91EF91BF91AF919F918F917F916F918A
:101660005F914F913F912F910F900FBE0F901F9060
:10167000189510928000E1E8F0E088E080831092F5
:1016800082001092890010928800109285001092BA
:10169000840082E086BB10926F0085E0808308950D
:1016A000E1ECF0E080818062808308951F920F92C8
:1016B0000FB60F9211242F933F934F935F936F9325
:1016C0007F938F939F93AF93BF93EF93FF9381E0AB
:1016D000809311038091C000982F9C71D9F4609180
:1016E000C6008FE393E08CDD1092110369D881115D
:1016F00077D8FF91EF91BF91AF919F918F917F919B
:101700006F915F914F913F912F910F900FBE0F906E
:101710001F90189583FD09C060E082FD606284FD22
:10172000606481E493E009DADACF60E8F6CF1F92D3
:101730000F920FB60F9211242F933F934F935F9305
:101740006F937F938F939F93AF93BF93EF93FF9389
:1017500081E0809311038FE393E076DD97FD18C05D
:101760008093C600109211032BD8811139D8FF91B4
:10177000EF91BF91AF919F918F917F916F915F9109
:101780004F913F912F910F900FBE0F901F90189582
:101790008091C1008F7D8093C100E4CF40E55BE084
:1017A00060E070E08FE393E0F5CC6115710519F10D
:1017B0008F53934009F00895FB0180818093C4000A
:1017C00081818F708093C50082E08093C00088E99A
:1017D0008093C10082818130B9F0A0F0823071F035
:1017E000843071F48091C10084608093C10086E0F0
:1017F0008093C200089561E471E0DACF84E0F8CF0D
:1018000086E0F6CF80E0F4CF82E0F2CF109269005C
:101810001DBA0895E091E502F091E6028AE491E0B4
:1018200094878387C0E285B18C2785B988E09DE3E2
:101830001DD9F9CF20DA0E942D0188DC60E070E02C
:101840008FE393E0D2DC00E010E02AE03CE040E8E7
:1018500061E870E080EF91E08FD8E0913F03F09174
:1018600040030280F381E02D4EE050E062E571E03C
:101870008FE393E0099588E09DE3F8D8FCCFABE0D7
:10188000B0E0E4E4FCE0D9C26C017B013A01FC0168
:1018900017821682838181FFF9C0CE0101964C0127
:1018A000F601B380F701B3FC0591B3FE01917F010E
:1018B000002309F4E7C0053249F4B3FC0591B3FEF7
:1018C00001917F01053211F010E017C0B601802FA1
:1018D00090E040D353013501E3CF002309F4D2C097
:1018E000602F70E081E092E0E3D2892B49F0F701AC
:1018F000B3FC0591B3FE01917F0117FFEECF04C049
:10190000033239F00C3619F0011105C0BBC0106864
:10191000EECF10E1ECCF602F70E08AEF91E0C8D2FB
:10192000892B41F05301F4E0AF0EB11CB6018FE3F7
:1019300090E010C0033631F0033771F0033501F544
:1019400011600AC0530182E0A80EB11CB601F30178
:1019500080819181FFD2BFCF5301F2E0AF0EB11C65
:10196000F30160807180F30110FD859110FF81917A
:101970003F01882309F4AFCFB60190E0EBD2F3CF5B
:10198000043611F0093621F5530117FF09C0F4E0C0
:10199000AF0EB11CF30160817181828193810AC015
:1019A000F2E0AF0EB11CF30160817181072E000CD3
:1019B000880B990B1F7E97FF08C0909580957095B6
:1019C00061957F4F8F4F9F4F10642AE030E030C009
:1019D000003791F040F40835A1F00F3609F052C0FD
:1019E00028E030E011C0053719F0083731F04AC05F
:1019F0001F7E2AE030E008C01061146220E130E070
:101A000003C0146020E132E0530117FF09C0F4E085
:101A1000AF0EB11CF301608171818281938108C096
:101A2000F2E0AF0EB11CF3016081718180E090E0C3
:101A3000A401E5D2082F081916FF04C0B6018DE2F3
:101A400090E088D214FF13C0FE01E00FF11D8081E9
:101A5000803369F0B60180E390E07CD212FF07C0CA
:101A60001072812F90E0B601885A9F4F73D20150B7
:101A7000F401E00FF11D8081B60190E06BD20111FD
:101A8000F6CF29CFF6018681978102C08FEF9FEFB5
:101A90002B96EEE0EEC120FD09C0FC0123FD05C040
:101AA00022FF02C07383628351834083089544FD03
:101AB00017C046FD17C0AB01BC01DA01FB01AA0F3C
:101AC000BB1FEE1FFF1F1094D1F74A0F5B1F6E1F45
:101AD0007F1FCB01BA01660F771F881F991F09C0AE
:101AE00033E001C034E0660F771F881F991F315023
:101AF000D1F7620F711D811D911D08950F931F93E2
:101B0000CF93DF938C01C801E7D1EC0197FD06C0AC
:101B1000C7D1892BC1F7B801CE0158D2CE01DF91D0
:101B2000CF911F910F9108958F929F92AF92BF9284
:101B3000EF92FF920F931F93CF93DF938C01D62FD9
:101B40007A01B22EC9D19C0133272B32310531F0F5
:101B50002D32310559F48B2D8068B82ED15011F4F7
:101B600080E061C0C801B8D197FDFACFCB2DCD7F01
:101B70002B2D2073F9F48033E9F4AA24AA94AD0E36
:101B800009F43EC0C801A8D197FD3AC09C012F7D41
:101B900033272835310541F4C264D25089F1C80198
:101BA0009BD197FF07C02CC0B6FE02C0C26001C027
:101BB000C261DA2D812C912C540120ED280F2830A0
:101BC00078F0C4FF03C0B80101D217C02A3040F03A
:101BD000C6FFF9CF2F7D3FEE320F3630A0F72750EA
:101BE0004C2FC501B40163DF4B015C01C260D150D1
:101BF00051F0C80171D197FFE0CFC1FD04C0B0CF53
:101C0000812C912C5401C7FF08C0B094A0949094EB
:101C10008094811C911CA11CB11C2C2FB501A40126
:101C2000C70139DF81E0DF91CF911F910F91FF90C4
:101C3000EF90BF90AF909F908F900895A0E0B0E09C
:101C4000E3E2FEE0F9C06C01EB015A01FC011782EE
:101C50001682512CF601F380FE01F3FC8591F3FE10
:101C60008191182FEF01882309F4D4C090E018D196
:101C7000892B19F0C60142DFEDCF153241F4FE0188
:101C8000F3FC1591F3FE1191EF01153271F4C601C9
:101C900023D197FDBDC0412F50E09C01332724176D
:101CA0003507C1F2B60192D1B5C01A3239F4F3FC4E
:101CB0001591F3FE1191EF0101E001C000E0E12C6C
:101CC00020ED210F2A3078F402606E2D70E080E064
:101CD00090E040E2ECDEE62EFE01F3FC1591F3FE0F
:101CE0001191EF01EDCF01FF03C0E11003C092C0DD
:101CF000EE24EA94183619F01C3651F010C0FE019B
:101D0000F3FC1591F3FE1191EF01183641F40860D0
:101D10000460FE01F3FC1591F3FE1191EF01112314
:101D200009F478C0612F70E081E192E0C1D0892B85
:101D300009F470C000FD07C0F50180809180C501E5
:101D400002965C0102C0812C912C1E3649F4F601EA
:101D50004681578160E070E0202FC4019CDE7ACF7D
:101D60001336A1F401FD02C0EE24E394C601B4D001
:101D700097FD4EC08114910429F0F4018083C401C1
:101D800001964C01EA94E110F1CF3EC0C601B6DEE7
:101D900097FD3EC01F3649F128F4143621F119365B
:101DA00039F125C0133771F01537E9F020C08114DF
:101DB000910429F0F4016082C40101964C01EA9477
:101DC000EE2059F0C60188D03C0197FD06C068D0CE
:101DD000892B69F3B601C301F9D081149104A1F0F4
:101DE000F401108211C0006203C0006101C00064F0
:101DF000202FA4016E2DC60197DE811105C0F601CA
:101E00008381807329F406C000FD24CF539422CF30
:101E1000552019F0852D90E002C08FEF9FEFCDB7D0
:101E2000DEB7EFE025C0EE0FFF1F0590F491E02D27
:101E300009942F923F924F925F926F927F928F926E
:101E40009F92AF92BF92CF92DF92EF92FF920F9349
:101E50001F93CF93DF93CDB7DEB7CA1BDB0B0FB653
:101E6000F894DEBF0FBECDBF09942A883988488810
:101E70005F846E847D848C849B84AA84B984C884A6
:101E8000DF80EE80FD800C811B81AA81B981CE0F9D
:101E9000D11D0FB6F894DEBF0FBECDBFED01089582
:101EA00091110BC1803219F089508550D0F70895F7
:101EB000FC010590061621F00020D9F7C001089515
:101EC0003197CF010895FB01DC0102C001900D9212
:101ED00041505040D8F70895CF93DF93EC012B8108
:101EE00020FF33C026FF0AC02F7B2B838E819F816A
:101EF00001969F838E838A8190E029C022FF0FC0C4
:101F0000E881F9818081082E000C990B009719F463
:101F100020622B831AC03196F983E8830EC0EA85CC
:101F2000FB85099597FF09C02B81019611F080E28E
:101F300001C080E1822B8B8308C02E813F812F5FFF
:101F40003F4F3F832E83992702C08FEF9FEFDF9192
:101F5000CF9108950F931F93CF93DF93FB012381BC
:101F600021FD03C08FEF9FEF2CC022FF16C04681DA
:101F70005781248135814217530744F4A081B181F0
:101F80009D012F5F3F4F318320838C9326813781C2
:101F90002F5F3F4F3783268314C08B01EC01FB0179
:101FA0000084F185E02D0995892BE1F6D80116967C
:101FB0008D919C911797019617969C938E931697E7
:101FC000CE01DF91CF911F910F910895FB012381E5
:101FD00020FF12C026FD10C08F3F3FEF930761F036
:101FE00082832F7D2064238326813781215031090C
:101FF00037832683992708958FEF9FEF0895FA017D
:10200000AA27283051F1203181F1E8946F936E7F37
:102010006E5F7F4F8F4F9F4FAF4FB1E03ED0B4E028
:102020003CD0670F781F891F9A1FA11D680F791F69
:102030008A1F911DA11D6A0F711D811D911DA11D7A
:1020400020D009F468943F912AE0269F112430198A
:10205000305D3193DEF6CF010895462F4770405D25
:102060004193B3E00FD0C9F7F6CF462F4F70405DD4
:102070004A3318F0495D31FD4052419302D0A9F72F
:10208000EACFB4E0A6959795879577956795BA9529
:10209000C9F700976105710508959B01AC010A2EEF
:1020A00006945795479537952795BA95C9F7620FC6
:1020B000731F841F951FA01D0895992788270895D1
:0420C000F894FFCFC2
:1020C40069646C650000017102DA02012C010000F0
:1020D4006E6F6E616D65006D61696E001640280259
:1020E400021C040507090B000D0E0000000000B6D9
:1020F40008B008C208BC08C008BA08B408AE08C6CC
:1021040008330003FF20FF00FF02426C696E6B6519
:10211400720048656C6C6F20576F726C64210D0AF5
:022124000000B9
:00000001FF
