:10000000AEC00000C9C00000C7C00000C5C00000ED
:10001000C3C00000C1C00000BFC00000BDC00000E0
:10002000BBC00000B9C00000B7C000000C947B0A40
:10003000B3C00000B1C00000AFC00000ADC0000000
:10004000ABC00000A9C000000C94C40A0C94050BBE
:10005000A3C000000C9403099FC000009DC00000D5
:100060009BC0000099C00000D20D310C310C310C46
:10007000310CD20D310C310C310C310C310C910D95
:10008000310C310C310C310C310C2E0D310C310C8A
:10009000CD0D310C310C310C310C310C310C310CDB
:1000A000310C310C310C1B0DD20D310C310C310CDB
:1000B000310CD20D310C310C310C310C310C910D55
:1000C000310C310C310CE50C310C2E0D310C310C96
:1000D000CD0D2E0EB10CB10CB10CB10C2E0EB10C1D
:1000E000B10CB10CB10CB10C900DB10CB10CB10C48
:1000F000B10CB10C2D0DB10CB10C4A0EB10CB10C00
:10010000B10CB10CB10CB10CB10CB10CB10CB10C07
:100110001B0D2E0EB10CB10CB10CB10C2E0EB10C8E
:10012000B10CB10CB10CB10C900DB10CB10CB10C07
:10013000E50CB10C2D0DB10CB10C4A0E45464765CE
:10014000666700202B2D2E30313233343536373868
:100150003968006364696E6F707375785800112494
:100160001FBECFEFD8E0DEBFCDBF11E0A0E0B1E011
:10017000E4EEF6E202C005900D92A237B107D9F77E
:1001800023E0A2E7B1E001C01D92A138B207E1F778
:100190000E94970E0C94701333CFFFCFE7D188D015
:1001A00092D4C9D440E86DE171E081E093E0F5D2EA
:1001B000FC019093F6028093F50291E0958790936D
:1001C000210378948BE091E06BC3CF92DF92EF92A2
:1001D000FF920F931F93CF93DF93C091F702D091BB
:1001E000F8022C813D8187EFE82E82E0F82E6091A5
:1001F0008400709185004091FD025091FE028B01B8
:10020000041B150B0217130790F42AC088859985E3
:10021000F6010995C091F702D091F8022C813D8139
:100220000217130720F34091FD025091FE02420F86
:10023000531F5093FE024093FD02021B130BE881F3
:10024000F981F382E282F093F802E093F702CE8024
:10025000DF801F821E82E75FF240C1F6BFD4D6CF97
:10026000F2E0C73FDF07D9F07093FE026093FD0212
:100270008C819D81801B910B9D838C8382309105A5
:1002800058F0860F971FDF91CF911F910F91FF902C
:10029000EF90DF90CF90A5C482E090E0F2CFDF91A5
:1002A000CF911F910F91FF90EF90DF90CF90089525
:1002B000EAEEF2E087EF92E096878587908B87875A
:1002C0008FEF9FEF928B818B148A138A0895EF92A0
:1002D000FF920F931F93CF93DF937C01DC0119965C
:1002E0003C932E93189717965C934E9316972091F4
:1002F0008400309185006230710508F459C0009186
:10030000F7021091F802B2E0073F1B0709F45AC048
:100310008091FD029091FE02281B390BEB01C20F68
:10032000D31FD801C217D307E0F114962D913C9149
:100330001597C217D30748F43EC0C21BD30BD80190
:100340000D911C91F801248135812C173D07A8F3EC
:10035000D7010D931C93D8011296ED91FC91139740
:10036000D7011396FC93EE931297F182E082F80185
:10037000F382E2821596DC93CE9314978481958163
:100380008C1B9D0B958384838FEF9FEF9093FC02D2
:100390008093FB02DF91CF911F910F91FF90EF901F
:1003A000089514968D919C911597C81BD90BC8CFB1
:1003B00062E070E0A4CF8C0F9D1F13D4F80124815C
:1003C0003581C3CF3093FE022093FD02F092F802F4
:1003D000E092F702F092FA02E092F902F70111833B
:1003E00000831383028375836483CB01820F931F81
:1003F000DF91CF911F910F91FF90EF90E6C3CF93C4
:10040000DF93FC01A091F702B091F802A817B90799
:1004100009F1C281D3818081918199838883A081F0
:10042000B1811396DC93CE9312971782168282E0E5
:10043000A73FB80761F014962D913C9115978481E0
:100440009581820F931F15969C938E931497DF913D
:10045000CF910895ED91FC911197F093F802E093FC
:10046000F70287EF92E09383828317961C921E9285
:100470001697E817F90729F12481358114968D9193
:100480009C911597820F931F9583848320918400FC
:10049000309185004091FD025091FE02241B350BE6
:1004A00028173907A0F6BC01621B730B6230710577
:1004B00028F0840F951FDF91CF9193C3C901029655
:1004C000F8CFDF91CF918AC3CF93DF93DC011D96E4
:1004D0008C911D97843099F170F5882349F1833010
:1004E00031F45096ED91FC915197118210828FEF6B
:1004F0009FEF51969C938E9350971D961C921D973B
:1005000014962C911497EAEEF2E00190F081E02D20
:1005100094819217D0F71196FC93EE93C281D38108
:100520001396DC93CE931297B983A883B383A283E7
:10053000DF91CF910895853089F08730C1F612960A
:10054000ED91FC9113978D919C91119791838083EC
:10055000CD91DC911197FB83EA83C9CF5096ED9141
:10056000FC91519784818F5F8483E9CFEAEEF2E0BA
:10057000F183E083F383E2831482F087E783F287D9
:10058000E1870895CF93DF93DC011D961C921D97A0
:1005900014962C911497EAEEF2E00190F081E02D90
:1005A00094819217D0F71196FC93EE93C281D38178
:1005B0001396DC93CE931297B983A883B383A28357
:1005C000CD01DF91CF910895CF93DF93EAEEF2E072
:1005D00063857485DB011D968C9380819181EC018C
:1005E000A881B981B183A0831396FC93EE931297EF
:1005F0009487838721E02D87ABD2DF91CF91089537
:100600001F93CF93DF93CDB7DEB72A970FB6F89439
:10061000DEBF0FBECDBF182F6F3F8FEF780711F1F0
:100620002091F5023091F60244E652E0CE010196A7
:100630004EDE812FC9DF8F819885892B19F0CE017D
:100640000196DDDEE091F502F091F6028089918954
:100650002A960FB6F894DEBF0FBECDBFDF91CF91C3
:100660001F910895812FB0DFEDCFCF93DF93DC0191
:10067000C091F502D091F60251967C936E935097FB
:1006800014962C9114978C818217D8F01D961C9289
:100690001D97EAEEF2E00190F081E02D948192172F
:1006A000D0F71196FC93EE93C281D3811396DC931D
:1006B000CE931297B983A883B383A283DF91CF919E
:1006C00008951D86EAEEF2E00190F081E02D94811C
:1006D0009817D0F7CD01F983E883A281B381BB835A
:1006E000AA83CD93DC93D383C2839093F602809345
:1006F000F50221E0FC012587BE012AD2DF91CF91CE
:100700000895A091EA02B091EB02E091F502F09118
:10071000F60281E014962C919481921708F080E003
:100720000895CF93DF93A091F502B091F602409126
:10073000EA025091EB02EA01E881F981F093EB02C1
:10074000E093EA028AEE92E0938382835093F6026A
:100750004093F50281E08D871D961C921D9714969B
:100760002C91149703C00190F081E02D94812917FA
:10077000D0F31196FC93EE938281938113969C9310
:100780008E931297EC01B983A883B383A283BD0132
:10079000CA01DED1DF91CF910895CF93DF93FC01A1
:1007A000448382E085871686438F128E118E108EC9
:1007B00081E0878774876387AAEEB2E0B087A7835A
:1007C0001996CD91DC911A97D287C187F887EF836C
:1007D0001A96FC93EE931997CF014296938B828BD6
:1007E0000296958B848B978B868BCF01DF91CF916F
:1007F0000895CF93DF93EC014C815D81FA017C97E2
:10080000CA01C197968385832F81DC0152962C9370
:100810005297288551962C935197298550962C9361
:1008200050972A851F962C931F9727ED35E05396F6
:100830003C93539754962C938E81288139818483DD
:1008400092E095871686838F128E118E108E81E02E
:10085000878734872387CAEED2E0D087C78389850C
:100860009A8592878187DC011896FC93EE931797FF
:10087000FA87E987EA012A97D983C883DA011897AA
:100880000B2E11960C921197AC930A2E1B2E1396D9
:100890001C920E9211241297CF01DF91CF910895EF
:1008A000CF93DF93F894A5DFEC0160E070E0DDDE2C
:1008B0007894CE01DF91CF9108950F931F93CF933A
:1008C000DF93F8946C517109EC01C60FD71FFE013C
:1008D0007597FE83ED83228B318B008B178787ED15
:1008E00095E0938B848B4C8382E08D871E864B8FA3
:1008F0001A8E198E188E81E08F8786E191E09C8791
:100900008B87EAEEF2E0F887EF83A185B285BA879C
:10091000A9871896DC93CE931797D287C187CE010B
:1009200042969B8B8A8B02969D8B8C8B9F8B8E8B9A
:1009300060E070E0CE0199DE7894CE01DF91CF9136
:100940001F910F9108950F931F93CF93DF93C09141
:10095000F502D091F602998B888B8E010E5E1F4FA7
:100960008A899B890817190759F0FC012081318178
:100970003B8B2A8B07DE8A899B8980179107A9F711
:100980008F8581110CC0E985FA858F8198859087C4
:100990008783AF81B8851A96FC93EE9319978FE001
:1009A000DF91CF911F910F910FCEF894CCCFF89497
:1009B000BC0188E025DE78940895DC01ED91FC917E
:1009C0001197309731F01D921C92718B608BCF0183
:1009D000D9CD0895CF93DF936115710599F0E0911A
:1009E000F502F091F60291838083EC01AA81BB812C
:1009F000B383A283ED93FC93FB83EA8384E0DF91CE
:100A0000CF91FECD8FEF9FEFDF91CF910895CF93E0
:100A1000DF93FC0180819181E817F90771F0EC0107
:100A2000A881B981B183A0831396FC93EE931297AA
:100A3000798B688BDF91CF91A5CDDF91CF91089510
:100A4000FC019183808393838283158214820895AD
:100A5000FC01908D692B608F85858A3059F08B3031
:100A600009F00895808968238613FBCF118A108AC4
:100A7000CF0188CD80896823C9F70895EF92FF924E
:100A80001F93CF93DF937C01162FFC01C081D1818E
:100A90008C179D0791F08D81812B8D83112319F087
:100AA0008E81812321F06C818A819B81D1DF099025
:100AB000D881C02DEC16FD0671F7DF91CF911F9103
:100AC000FF90EF900895EDE1F3E082E791E09183EC
:100AD000808382EF91E0938382830895F8949B0151
:100AE00021503109719561957109E0911D03F091D3
:100AF0001E034E0F5F1F420F531F46235723820FC3
:100B0000931F68237923CA01860F971F20911F0323
:100B1000309120032817390750F08E179F0738F0BF
:100B200090931E0380931D03CA017894089580E07A
:100B300090E078940895E2EFF1E08EE695E09183FD
:100B40008083138212821582148288EF91E078CF1D
:100B50002F923F924F925F926F927F928F929F92CD
:100B6000AF92BF92CF92DF92EF92FF920F931F93BB
:100B7000CF93DF93FB010DB605820EB60682FC0112
:100B800005800DBE06800EBEDF91CF911F910F91A3
:100B9000FF90EF90DF90CF90BF90AF909F908F909D
:100BA0007F906F905F904F903F902F900895789432
:100BB000C201F1010995F9CE25D38AE491E08DD4E3
:100BC00066D2ABD291D500C0C2C490938900809305
:100BD000880082E086BB80936F00089510926F00BA
:100BE000089590938900809388000895AF92BF92F2
:100BF000CF92DF92EF92FF920F931F93CF93DF93E9
:100C0000EC016B018A018C819D818417950710F49A
:100C10000C811D816C857D85E884F984E61AF70ACC
:100C20000E151F0598F1E016F106D0F0A801C601D7
:100C30000E9473128E819F819D878C878C819D81FC
:100C4000801B910B9D838C83C801DF91CF911F91F5
:100C50000F91FF90EF90DF90CF90BF90AF900895ED
:100C6000A701C6010E9473125801AE18BF086E8119
:100C70007F81A501C6018E0D9F1D0E9473128E817A
:100C80009F81A80EB91EBD86AC86D8CFA801C6012B
:100C90000E9473128C859D85800F911F9D878C8784
:100CA000CDCFAF92BF92CF92DF92EF92FF920F9390
:100CB0001F93CF93DF93EC016B018A018C819D819F
:100CC0008417950710F40C811D818A859B85E88423
:100CD000F984E81AF90A0E151F0598F1E016F106D5
:100CE000D0F0A801B6010E9473128E819F819B876C
:100CF0008A878C819D81801B910B9D838C83C80189
:100D0000DF91CF911F910F91FF90EF90DF90CF90E7
:100D1000BF90AF900895A701B6010E9473125801C9
:100D2000AE18BF08B6016E0D7F1DA5018E819F8193
:100D30000E9473128E819F81A80EB91EBB86AA865F
:100D4000D8CFA801B6010E9473128A859B85800FB7
:100D5000911F9B878A87CDCF0F931F93FC019183AF
:100D60008083938382831582148277836683758759
:100D7000648773876287640F751F71876087378701
:100D80002687118B008B1F910F910895FC01A2857E
:100D9000B38584859585A817B907E1F0848195818D
:100DA000019695838483CD010196938782876C9306
:100DB00022853385808591852817390720F0868123
:100DC000978193878287CF0160E070E020DE80E02A
:100DD00090E0089584819581892B01F38FEF9FEF37
:100DE00008950F931F93CF93DF93EC018B01F89439
:100DF00005C0B801CE01EEDD97FD27C08C819D8135
:100E0000892BB9F38C819D8101979D838C83EC851F
:100E1000FD85CF0101969D878C87108128853985B6
:100E20008217930720F08E819F819D878C87EE85A6
:100E3000FF85309711F0CE0109957894812F90E0CD
:100E4000DF91CF911F910F9108957894DF91CF9109
:100E50001F910F9108956F927F928F929F92AF9200
:100E6000BF92CF92DF92EF92FF920F931F93CF9397
:100E7000DF936C017B013A014901FC01A684B78430
:100E8000F89441155105B9F08A01A801B701C601CE
:100E9000ADDEEC01892B21F1A114B10419F0C601DA
:100EA000F501099578940C1B1D0BEC0EFD1EF894B2
:100EB0000115110551F700E010E07894C301801B83
:100EC000910BDF91CF911F910F91FF90EF90DF90E9
:100ED000CF90BF90AF909F908F907F906F9008952C
:100EE000B401C60177DD892B81F2E7CF0F931F9301
:100EF000FC0191838083938382835583448377832A
:100F000066837587648773876287460F571F51878B
:100F1000408737872687118B008B1F910F9108958B
:100F2000FF920F931F93CF93DF93EC01F62E8A016C
:100F3000F89405C0B801CE014DDD97FD2AC08C8123
:100F40009D81892BB9F38C819D8101979D838C8331
:100F5000EA85FB85CF0101969B878A87F0822A85E7
:100F60003B85888599852817390720F08E819F81D8
:100F70009B878A87EE85FF85309711F0CE01099512
:100F8000789480E090E0DF91CF911F910F91FF90D6
:100F900008957894DF91CF911F910F91FF9008955C
:100FA000CF93FC01A485B585828593858A179B071D
:100FB000E1F084819581019695838483CD0101962A
:100FC00095878487CC91208531858217930740F4DB
:100FD000CF0160E070E01BDD8C2F90E0CF91089591
:100FE0008681978195878487F3CF84819581892B2A
:100FF00001F38FEF9FEFF2CF6F927F928F929F92CC
:10100000AF92BF92CF92DF92EF92FF920F931F9316
:10101000CF93DF936C017B013A014901FC01A68467
:10102000B784F89441155105B9F08A01A801B701B8
:10103000C60137DEEC01892B21F1A114B10419F0AE
:10104000C601F501099578940C1B1D0BEC0EFD1ED5
:10105000F8940115110551F700E010E07894C301F0
:10106000801B910BDF91CF911F910F91FF90EF901B
:10107000DF90CF90BF90AF909F908F907F906F90B8
:101080000895B401C601A6DC892B81F2E7CFDBC14C
:10109000FC0181E080831282118214821382168205
:1010A00015821086178212861186CF010B96C8CC46
:1010B000CF93DF93EC01F8947A836983CDD182E0FA
:1010C00088837894DF91CF910895F894FC0154833C
:1010D0004383368325837087678323E02083D5D1BC
:1010E000789408950596B7CE2FEF3FEF0596B3CECF
:1010F000479682CF2FEF3FEF47967ECF059671CE72
:101100006FEF7FEF05966DCE47960ACF4FEF5FEFFB
:10111000479606CF80E090E00895AEC2EF92FF922E
:101120000F931F93CF93DF93EC019B017A01FC0196
:1011300083E391E081939193FB83EA8381E08C8345
:10114000BE01675D7F4F8E0140E150E0CE01059604
:1011500003DEBE01675C7F4F970140E150E0CE01A6
:101160004796C4DEDF91CF911F910F91FF90EF90D2
:101170000895CF93DF93EC01F89485D282E08C83BD
:101180007894DF91CF9108951F93CF93DF93EC0173
:10119000162F89859A85892B51F0612FCE010596EE
:1011A000F5DD97FD0EC0DF91CF911F91089564E0AA
:1011B000CE01029663DC612FCE010596E7DD97FF35
:1011C000F2CF60E0CE010296DF91CF911F9156CC15
:1011D0000F931F93CF93DF938C014796E1DEEC01D1
:1011E00097FD06C0CE01DF91CF911F910F91089519
:1011F00068E0C801029642DCCE01DF91CF911F91D9
:101200000F91089508951F920F920FB60F92112417
:10121000AF92BF92CF92DF92EF92FF920F931F9304
:101220002F933F934F935F936F937F938F939F93EE
:10123000AF93BF93CF93DF93EF93FF9381E08093BE
:10124000210380917800409179002091250330910D
:101250002603E0913503F0913603EE0FFF1FE20FF6
:10126000F31F90E0942B91838083009135031091BC
:1012700036030F5F1F4F1093360300933503A09082
:101280002703B0902803E0912903F0912A036F010E
:1012900061817281A69E7001A79EF00CB69EF00C33
:1012A0001124C8010E94D111EC018081882309F426
:1012B00047C0209731F4B694A7946A157B0509F4CA
:1012C00096C00E151F0509F46DC0F601958199238E
:1012D00059F020E090FF04C0CC2309F459C0C1505C
:1012E00096952F5F9111F6CF87E020917C00287FA3
:1012F000282B20937C0080917A00806480937A0070
:1013000010922103FED981110CDAFF91EF91DF9148
:10131000CF91BF91AF919F918F917F916F915F918D
:101320004F913F912F911F910F91FF90EF90DF9080
:10133000CF90BF90AF900F900FBE0F901F90189559
:101340000E151F0509F0C1CF80917A008F7B809325
:101350007A000380F481E02D309709F45EC084E0C8
:101360008093220340912703509128036091250325
:101370007091260382E293E00995809122038430E4
:1013800009F44BC060E070E08BE293E016DBB8CF6D
:10139000822F8770AACFE0912903F0912A038081E0
:1013A000882391F2238134812115310509F4A8CFD6
:1013B000409127035091280342305105D8F15695AA
:1013C000479561817281660F771F649FC001659F99
:1013D000900D749F900D1124609125037091260348
:1013E000680F791F82E293E0F901099589CF0380A4
:1013F000F481E02D3097C9F0AB01B90182E293E0AE
:1014000009958091350390913603E816F90619F293
:10141000C0902903D0902A0358CF82E08093220302
:1014200010922A0310922903ADCF0E151F0509F063
:101430004CCF66CF609125037091260382E293E042
:10144000F90109955DCF82E293E022DE8FE080937F
:101450007A0010927C000895DC012C91213079F003
:10146000DC011196ED91FC911297309739F0808153
:101470008295880F880F807C80937C00089520914E
:101480007A00206820937A00EBCFDC0154961C92FE
:101490001E9253971796ED91FC911897858188239A
:1014A00051F080FD18C090E002C080FD11C086950B
:1014B0009F5F8111FACF87E090917C00987F982BF5
:1014C00090937C0080917A00806480937A000895E4
:1014D000892F8770F1CF80E0EFCFFC01808185B943
:1014E000818184B9828188B9838187B984818BB9EC
:1014F00085818AB908951F920F920FB60F92112419
:101500002F933F934F935F936F937F938F939F930B
:10151000AF93BF93EF93FF9381E0809321030E94E9
:10152000E50010922103EDD88111FBD8FF91EF91D6
:10153000BF91AF919F918F917F916F915F914F91EB
:101540003F912F910F900FBE0F901F901895109202
:101550008000E1E8F0E088E0808310928200109241
:10156000890010928800109285001092840082E019
:1015700086BB10926F0085E080830895E1ECF0E077
:1015800080818062808308951F920F920FB60F9220
:1015900011242F933F934F935F936F937F938F9378
:1015A0009F93AF93BF93EF93FF9381E080932103C9
:1015B0008091C000982F9C71D9F46091C60087E398
:1015C00093E0E2DD109221039CD88111AAD8FF910B
:1015D000EF91BF91AF919F918F917F916F915F91AB
:1015E0004F913F912F910F900FBE0F901F90189524
:1015F00083FD09C060E082FD606284FD606489E370
:1016000093E03CDADACF60E8F6CF1F920F920FB684
:101610000F9211242F933F934F935F936F937F9378
:101620008F939F93AF93BF93EF93FF9381E080934A
:10163000210387E393E0CCDD97FD18C08093C600BB
:10164000109221035ED881116CD8FF91EF91BF9168
:10165000AF919F918F917F916F915F914F913F914A
:101660002F910F900FBE0F901F9018958091C10081
:101670008F7D8093C100E4CF4EEB5AE060E070E0D4
:1016800087E393E04BCD6115710519F187539340C2
:1016900009F00895FB0180818093C40081818F70DF
:1016A0008093C50082E08093C00088E98093C100E8
:1016B00082818130B9F0A0F0823071F0843071F411
:1016C0008091C10084608093C10086E08093C20055
:1016D000089567E471E0DACF84E0F8CF86E0F6CFD2
:1016E00080E0F4CF82E0F2CF109269001DBA089535
:1016F0002F923F924F925F926F927F928F929F9222
:10170000AF92BF92CF92DF92EF92FF920F931F930F
:10171000CF93DF93CDB7DEB7A2970FB6F894DEBFB5
:101720000FBECDBF1C016B01588F4F8B1E8A1D8AC7
:101730009E012E5F3F4F3E872D87AE014F5F5F4F6B
:10174000588B4F87241B350B38A32F8F215031091D
:101750003AA329A3CE010C969A8B898B86010F5F41
:101760001F4FD6016C916623B9F0653281F1D1012A
:10177000ED91FC910680F781E02DC1010995ED897D
:10178000FE893196FE8BED8B680186010F5F1F4F3E
:10179000D6016C916111E9CF8D899E89A2960FB611
:1017A000F894DEBF0FBECDBFDF91CF911F910F9197
:1017B000FF90EF90DF90CF90BF90AF909F908F9071
:1017C0007F906F905F904F903F902F900895D6013B
:1017D00011968C9111978D3209F4ECC01A8E8033DA
:1017E00009F4E1C020E2298FA8014F5F5F4F00E0BC
:1017F00010E0EF89F88D13C0908132969801220F86
:10180000331F000F111F000F111F000F111F020FB8
:10181000131F090F111D4F5F5F4FD6018C916A0195
:1018200090ED980F9A3050F38A3231F3F88FEF8BA6
:1018300020E030E08E3209F496C0982F9F7D9C34D2
:1018400009F47EC0AFEBA80F91E0AA3108F090E058
:10185000482F50E0FA01E454F109E533F10508F4AA
:10186000B1C08983EF8DF8A189A09AA0AE014F5F26
:101870005F4F7A015801AE1ABF0AB7FCD9C05A8D22
:1018800051115BC0002711270A191B0909F45BC11C
:10189000D7018C918D3209F45FC1798CD101ED9122
:1018A000FC910680F781E02D672DC10109950F5F3E
:1018B0001F4FA1F72D893E892F5F3F4F81E090E0B8
:1018C0008A199B09A901481B590B5E8B4D8B97FC0C
:1018D00045CFA12CB12C8401F70161917F01D10189
:1018E000ED91FC910680F781E02DC1010995015031
:1018F000110990F78D899E89019697FC2AC1F40100
:10190000E80FF91FFE8BED8BA114B10409F426CF6B
:101910008501F98CD101ED91FC910680F781E02DD4
:101920006F2DC101099501501109A1F7ED89FE89BB
:10193000EA0DFB1DFE8BED8B11CF97FECCCFE4CFD4
:10194000D6014C91442309F48CCFFFEFCF1ADF0A64
:10195000842F90E0FC01E454F109E533F10508F42B
:10196000F5C0842F7ECFDF010FC09C911296A90194
:10197000440F551F220F331F220F331F220F331F17
:10198000240F351F290F311DEFEFCE1ADE0AF601A5
:101990003197808190ED980F9A3048F38A3229F37D
:1019A000B88FAF8B4ACFF80181810F5F1F4FF0E3F3
:1019B000F98F1ACF86010E5F1F4F12968C91B1E0FE
:1019C000BA8F0DCFEC5CFF4F1CC58F89988D0296A6
:1019D000AF89B88DED90FC90E114F10409F46AC16F
:1019E000F7012115310509F4D1C04081442309F4E0
:1019F00066C121503109F701319605C021503109E6
:101A000008F44DC1FB01BF016F5F7F4F4081411161
:101A1000F5CFEE19FF094F0121E0821A9108988F46
:101A20008F8B30E2398F5801AE1ABF0AB7FE27CF2D
:101A3000A12CB12C24CFAF89B88D8C918983EF8DE7
:101A4000F8A189A09AA01296B88FAF8BB0E2B98F97
:101A50009E012F5F3F4F79010DCF91E04AE050E0AA
:101A600060E070E0911164C0EF89F88D8080918012
:101A7000A12CB12C3296F88FEF8B240135019E01F9
:101A8000245F3F4F3C8B2B8B1C8F0B8F7A018B017C
:101A9000DE8ECD8EC501B401A801970196D49B01BD
:101AA000205D3F4F2A33310514F0295F3F4FD22E7E
:101AB000AB89BC892E93BC8BAB8BC501B401A8014B
:101AC000970183D449015A01C301B201A8019701CA
:101AD0007CD429013A01232B242B252BD9F60B8DFD
:101AE0001C8DFD2CCD8CDE8C89899A89EB89FC8933
:101AF0008E1B9F0BDE01119631969D01280F391F19
:101B000001C0F190FD92A217B307D9F74C01F1E0A3
:101B10008F1A9108FC019E012F5F3F4F7901AACED9
:101B200091E048E050E060E070E0992309F49CCF38
:101B3000AF89B88D8D909D90AD90BC901397149601
:101B4000B88FAF8B9ACF97FEC4CE08CEE759FF4F20
:101B500058C4812C912CD3CEB98DB03309F09DCED1
:101B6000EFEFEE1AFE0AD101ED91FC910680F781AC
:101B7000E02D6DE2C1010995ED89FE893196FE8B5C
:101B8000ED8BF1E08F1A9108798C88CE2081222389
:101B900009F495C02EEF3FE72ECF40E150E060E022
:101BA00070E060CFAA3108F459C0EF89F88D8080C9
:101BB0009180092C000CAA08BB083296F88FEF8B95
:101BC000B7FC58C0AE014F5F5F4F5C8F4B8F8B8D62
:101BD0009C8D0B969C8B8B8B240135011E8F0D8F5A
:101BE0007C01C501B4012AE030E040E050E0EDD3D3
:101BF000605D7F4F162FD7016E937D0149015A0119
:101C0000C301B2012AE030E040E050E0DED3290118
:101C10003A01232B242B252B21F7C701F12E0D8D03
:101C20001E8DEB8DFC8DDC0111962B893C89281BC8
:101C3000390BC9018E0F9F1F01C0FD90F192E8176B
:101C4000F907D9F74F855889E41BF50B4F0151E08F
:101C5000851A9108CE0101967C010CCEAF89B88D12
:101C60008D909D90AD90BC9013971496B88FAF8BCC
:101C7000B7FEA8CF8DE28983B094A094909480940D
:101C8000811C911CA11CB11C9E012E5F3F4F3C8FFB
:101C90002B8F9DCF40E150E060E070E049CFEE191E
:101CA000FF094F0151E0851A9108988F8F8B80E2D0
:101CB000898FE0CD40E5E42E41E0F42E91CE58012D
:101CC00017FD0EC05A8D988F8F8B511106C0882436
:101CD0008A94982C80E2898FD5CDF0E2F98F14CECA
:101CE000A12CB12CEFCFCF93DF93CDB7DEB7AE01F0
:101CF000475F5F4F6F8178858D819E81F9DCDF9131
:101D0000CF91089581E0809380030895E091F502DA
:101D1000F091F60287E591E094878387C0E285B170
:101D20008C2785B98BE196E00E94D704F8CFCF933A
:101D3000DF93CDB7DEB72D970FB6F894DEBF0FBE99
:101D4000CDBF0E94DC050E94CE0060E070E087E31A
:101D500093E00FDA81E08D8786E0E0E0F1E0DE01DC
:101D6000179601900D928A95E1F7BE01635F7F4F50
:101D700082E293E09DD900E010E026E83EE040E8F2
:101D800061E870E080E092E00E945D04CE01079679
:101D90005C018FE5C82E81E0D82E97E3E92E93E011
:101DA000F92E23E030E0AE014F5F5F4FB50182E2D4
:101DB00093E08BD9809180038823E1F31092800314
:101DC0008E010F5F1F4FF801808191810E5F1F4FC1
:101DD0009F938F93DF92CF92FF92EF9284DF0F90C9
:101DE0000F900F900F900F900F900A151B0559F749
:101DF00084E89EE10E94D704D4CFABE0B0E0E2E0FB
:101E0000FFE009C36C017B013A01FC0117821682D5
:101E1000838181FFF9C0CE0101964C01F601B380A8
:101E2000F701B3FC0591B3FE01917F01002309F492
:101E3000E7C0053249F4B3FC0591B3FE01917F017F
:101E4000053211F010E017C0B601802F90E092D358
:101E500053013501E3CF002309F4D2C0602F70E0B5
:101E600083E491E035D3892B49F0F701B3FC059168
:101E7000B3FE01917F0117FFEECF04C0033239F0AA
:101E80000C3619F0011105C0BBC01068EECF10E18F
:101E9000ECCF602F70E08CE391E01AD3892B41F0F6
:101EA0005301F4E0AF0EB11CB6018FE390E010C017
:101EB000033631F0033771F0033501F511600AC0C4
:101EC000530182E0A80EB11CB601F301808191811B
:101ED00051D3BFCF5301F2E0AF0EB11CF3016080CC
:101EE0007180F30110FD859110FF81913F018823DE
:101EF00009F4AFCFB60190E03DD3F3CF043611F033
:101F0000093621F5530117FF09C0F4E0AF0EB11CEB
:101F1000F30160817181828193810AC0F2E0AF0E8A
:101F2000B11CF30160817181072E000C880B990BA5
:101F30001F7E97FF08C090958095709561957F4FA3
:101F40008F4F9F4F10642AE030E030C0003791F08F
:101F500040F40835A1F00F3609F052C028E030E017
:101F600011C0053719F0083731F04AC01F7E2AE04A
:101F700030E008C01061146220E130E003C014605A
:101F800020E132E0530117FF09C0F4E0AF0EB11CAD
:101F9000F301608171818281938108C0F2E0AF0E0C
:101FA000B11CF3016081718180E090E0A40137D31E
:101FB000082F081916FF04C0B6018DE290E0DAD2AE
:101FC00014FF13C0FE01E00FF11D8081803369F022
:101FD000B60180E390E0CED212FF07C01072812FCD
:101FE00090E0B601885A9F4FC5D20150F401E00F2E
:101FF000F11D8081B60190E0BDD20111F6CF29CF4D
:10200000F6018681978102C08FEF9FEF2B96EEE05D
:102010001EC220FD09C0FC0123FD05C022FF02C035
:102020007383628351834083089544FD17C046FD46
:1020300017C0AB01BC01DA01FB01AA0FBB1FEE1FE9
:10204000FF1F1094D1F74A0F5B1F6E1F7F1FCB013C
:10205000BA01660F771F881F991F09C033E001C0BE
:1020600034E0660F771F881F991F3150D1F7620F38
:10207000711D811D911D08950F931F93CF93DF93C1
:102080008C01C80139D2EC0197FD06C019D2892B09
:10209000C1F7B801CE01AAD2CE01DF91CF911F9135
:1020A0000F9108958F929F92AF92BF92EF92FF92FD
:1020B0000F931F93CF93DF938C01D62F7A01B22E0B
:1020C0001BD29C0133272B32310531F02D323105E3
:1020D00059F48B2D8068B82ED15011F480E061C086
:1020E000C8010AD297FDFACFCB2DCD7F2B2D2073BF
:1020F000F9F48033E9F4AA24AA94AD0E09F43EC0A1
:10210000C801FAD197FD3AC09C012F7D33272835AD
:10211000310541F4C264D25089F1C801EDD197FF75
:1021200007C02CC0B6FE02C0C26001C0C261DA2D79
:10213000812C912C540120ED280F283078F0C4FF19
:1021400003C0B80153D217C02A3040F0C6FFF9CF00
:102150002F7D3FEE320F3630A0F727504C2FC501B0
:10216000B40163DF4B015C01C260D15051F0C80182
:10217000C3D197FFE0CFC1FD04C0B0CF812C912C1B
:102180005401C7FF08C0B094A09490948094811C1F
:10219000911CA11CB11C2C2FB501A401C70139DF72
:1021A00081E0DF91CF911F910F91FF90EF90BF9051
:1021B000AF909F908F900895A0E0B0E0E1EEF0E145
:1021C00029C16C01EB015A01FC0117821682512CC6
:1021D000F601F380FE01F3FC8591F3FE8191182F47
:1021E000EF01882309F4D4C090E06AD1892B19F05B
:1021F000C60142DFEDCF153241F4FE01F3FC15912B
:10220000F3FE1191EF01153271F4C60175D197FDFE
:10221000BDC0412F50E09C01332724173507C1F280
:10222000B601E4D1B5C01A3239F4F3FC1591F3FECE
:102230001191EF0101E001C000E0E12C20ED210F40
:102240002A3078F402606E2D70E080E090E040E289
:10225000ECDEE62EFE01F3FC1591F3FE1191EF0189
:10226000EDCF01FF03C0E11003C092C0EE24EA9459
:10227000183619F01C3651F010C0FE01F3FC159110
:10228000F3FE1191EF01183641F408600460FE017D
:10229000F3FC1591F3FE1191EF01112309F478C0BD
:1022A000612F70E083E591E013D1892B09F470C0B0
:1022B00000FD07C0F50180809180C50102965C0198
:1022C00002C0812C912C1E3649F4F60146815781BB
:1022D00060E070E0202FC4019CDE7ACF1336A1F4B9
:1022E00001FD02C0EE24E394C60106D197FD4EC065
:1022F0008114910429F0F4018083C40101964C01FA
:10230000EA94E110F1CF3EC0C601B6DE97FD3EC0B3
:102310001F3649F128F4143621F1193639F125C058
:10232000133771F01537E9F020C08114910429F0BA
:10233000F4016082C40101964C01EA94EE2059F048
:10234000C601DAD03C0197FD06C0BAD0892B69F3EB
:10235000B601C3014BD181149104A1F0F4011082A4
:1023600011C0006203C0006101C00064202FA401FD
:102370006E2DC60197DE811105C0F6018381807341
:1023800029F406C000FD24CF539422CF552019F024
:10239000852D90E002C08FEF9FEFCDB7DEB7EFE065
:1023A00055C0AA1BBB1B51E107C0AA1FBB1FA61724
:1023B000B70710F0A61BB70B881F991F5A95A9F7EE
:1023C00080959095BC01CD010895052E97FB16F4DC
:1023D00000940FD057FD05D051D007FC02D046F431
:1023E00008C050954095309521953F4F4F4F5F4F16
:1023F000089590958095709561957F4F8F4F9F4F71
:102400000895EE0FFF1F0590F491E02D09942F928F
:102410003F924F925F926F927F928F929F92AF9274
:10242000BF92CF92DF92EF92FF920F931F93CF93C1
:10243000DF93CDB7DEB7CA1BDB0B0FB6F894DEBF58
:102440000FBECDBF09942A88398848885F846E847E
:102450007D848C849B84AA84B984C884DF80EE80C8
:10246000FD800C811B81AA81B981CE0FD11D0FB6D1
:10247000F894DEBF0FBECDBFED010895A1E21A2E84
:10248000AA1BBB1BFD010DC0AA1FBB1FEE1FFF1F18
:10249000A217B307E407F50720F0A21BB30BE40B68
:1024A000F50B661F771F881F991F1A9469F76095AF
:1024B0007095809590959B01AC01BD01CF01089569
:1024C00091110BC1803219F089508550D0F70895D1
:1024D000FC010590061621F00020D9F7C0010895EF
:1024E0003197CF010895FB01DC0102C001900D92EC
:1024F00041505040D8F70895CF93DF93EC012B81E2
:1025000020FF33C026FF0AC02F7B2B838E819F8143
:1025100001969F838E838A8190E029C022FF0FC09D
:10252000E881F9818081082E000C990B009719F43D
:1025300020622B831AC03196F983E8830EC0EA85A6
:10254000FB85099597FF09C02B81019611F080E268
:1025500001C080E1822B8B8308C02E813F812F5FD9
:102560003F4F3F832E83992702C08FEF9FEFDF916C
:10257000CF9108950F931F93CF93DF93FB01238196
:1025800021FD03C08FEF9FEF2CC022FF16C04681B4
:102590005781248135814217530744F4A081B181CA
:1025A0009D012F5F3F4F318320838C93268137819C
:1025B0002F5F3F4F3783268314C08B01EC01FB0153
:1025C0000084F185E02D0995892BE1F6D801169656
:1025D0008D919C911797019617969C938E931697C1
:1025E000CE01DF91CF911F910F910895FB012381BF
:1025F00020FF12C026FD10C08F3F3FEF930761F010
:1026000082832F7D206423832681378121503109E5
:1026100037832683992708958FEF9FEF0895FA0156
:10262000AA27283051F1203181F1E8946F936E7F11
:102630006E5F7F4F8F4F9F4FAF4FB1E03ED0B4E002
:102640003CD0670F781F891F9A1FA11D680F791F43
:102650008A1F911DA11D6A0F711D811D911DA11D54
:1026600020D009F468943F912AE0269F1124301964
:10267000305D3193DEF6CF010895462F4770405DFF
:102680004193B3E00FD0C9F7F6CF462F4F70405DAE
:102690004A3318F0495D31FD4052419302D0A9F709
:1026A000EACFB4E0A6959795879577956795BA9503
:1026B000C9F700976105710508959B01AC010A2EC9
:1026C00006945795479537952795BA95C9F7620FA0
:1026D000731F841F951FA01D0895992788270895AB
:0426E000F894FFCF9C
:1026E400000100820E0769646C650006018102EA3C
:1026F4000201CD0000006E6F6E616D65006D616951
:102704006E0016402802021C040507090B000D0E7A
:1027140000000000007A0874088608800884087E97
:1027240008780872088A08100003FF20FF00FF02DF
:10273400286E756C6C2900426C696E6B6572006F53
:102744007574707574203D5B25645D20200A200D2E
:02275400000083
:00000001FF
