:1000000077C1000092C1000090C100008EC10000C5
:100010008CC100008AC1000088C1000086C10000B8
:1000200084C1000082C1000080C100000C94CA0B92
:100030007CC100007AC1000078C1000076C10000D8
:1000400074C1000072C100000C94130C0C94540C89
:100050006CC100006AC1000068C1000066C10000F8
:100060000C94EA0962C10000320B070A070A070A6A
:10007000070A070A070A070A380B070A070A070AC6
:10008000070A070A070A070A380B070A070A070AB6
:10009000070A070A070A070A5B0B070A070A070A83
:1000A000070A070A070A070A5E0A070A070A070A71
:1000B000070A070A070A070A5B0B070A070A070A63
:1000C000070A070A070A070A5E0A070A070A070A51
:1000D000070A070A070A070A190B070A070A070A85
:1000E000070A070A070A070AA60A070A070A070AE9
:1000F000070A070A070A070A5E0A070A070A070A21
:10010000070A070A070A070A910A070A070A070ADD
:10011000070A070A070A070A490A070A070A070A15
:10012000070A070A070A070AB90A070A070A070A95
:10013000070A070A070A070ACC0A070A070A070A72
:10014000070A070A070A070A070A070A070A070A27
:10015000070A070A070A070A070A070A070A070A17
:10016000070A070A070A070A780B070A070A070A95
:10017000070A070A070A070A2E0A070A070A070AD0
:10018000070A070A070A070A070A070A070A070AE7
:10019000070A070A070A070A070A070A070A070AD7
:1001A000070A070A070A070A6C0A070A070A070A62
:1001B000070A070A070A070A6F0A070A070A070A4F
:1001C000070A070A070A070A020B070A070A070AAB
:1001D000070A070A070A070A1F0B070A070A070A7E
:1001E000070A070A070A070A430A070A070A070A4B
:1001F000070A070A070A070A430A230F820D820D1E
:10020000820D820D230F820D820D820D820D820DD3
:10021000E20E820D820D820D820D820D7F0E820D07
:10022000820D1E0F820D820D820D820D820D820DB8
:10023000820D820D820D820D6C0E230F820D820DB8
:10024000820D820D230F820D820D820D820D820D93
:10025000E20E820D820D820D360E820D7F0E820D12
:10026000820D1E0F7F0F020E020E020E020E7F0F76
:10027000020E020E020E020E020EE10E020E020E1F
:10028000020E020E020E7E0E020E020E9B0F020ED8
:10029000020E020E020E020E020E020E020E020EDE
:1002A000020E6C0E7F0F020E020E020E020E7F0F68
:1002B000020E020E020E020E020EE10E020E020EDF
:1002C000020E360E020E7E0E020E020E9B0F4546E9
:1002D0004765666700202B2D2E303132333435369A
:1002E00037383968006364696E6F707375785800C9
:1002F00011241FBECFEFD8E0DEBFCDBF11E0A0E0DC
:10030000B1E0E2E5F9E202C005900D92A43BB1072D
:10031000D9F723E0A4EBB1E001C01D92AA3DB207DA
:10032000E1F70E9420100C94A7146ACEFFCFE7D10A
:1003300088D0A3D4DAD440E867E171E083E493E0A5
:10034000F5D2FC01909338038093370391E09587B1
:1003500090936303789485E091E06BC3CF92DF9232
:10036000EF92FF920F931F93CF93DF93C0913903C6
:10037000D0913A032C813D8189E3E82E83E0F82E69
:10038000609184007091850040913F03509140033B
:100390008B01041B150B0217130790F42AC08885E4
:1003A0009985F6010995C0913903D0913A032C81C2
:1003B0003D810217130720F340913F035091400302
:1003C000420F531F5093400340933F03021B130BF4
:1003D000E881F981F382E282F0933A03E0933903F2
:1003E000CE80DF801F821E82E953F340C1F6D0D455
:1003F000D6CFF3E0C933DF07D9F0709340036093A1
:100400003F038C819D81801B910B9D838C83823067
:10041000910558F0860F971FDF91CF911F910F9193
:10042000FF90EF90DF90CF90B6C482E090E0F2CFE3
:10043000DF91CF911F910F91FF90EF90DF90CF90C0
:100440000895ECE2F3E089E393E096878587908B4B
:1004500087878FEF9FEF928B818B148A138A089581
:10046000EF92FF920F931F93CF93DF937C01DC01F8
:1004700019963C932E93189717965C934E93169764
:1004800020918400309185006230710508F459C0D4
:100490000091390310913A03B3E009331B0709F4C3
:1004A0005AC080913F0390914003281B390BEB0108
:1004B000C20FD31FD801C217D307E0F114962D91B4
:1004C0003C911597C217D30748F43EC0C21BD30B0B
:1004D000D8010D911C91F801248135812C173D071D
:1004E000A8F3D7010D931C93D8011296ED91FC91BE
:1004F0001397D7011396FC93EE931297F182E08243
:10050000F801F382E2821596DC93CE9314978481EE
:1005100095818C1B9D0B958384838FEF9FEF909328
:100520003E0380933D03DF91CF911F910F91FF9088
:10053000EF90089514968D919C911597C81BD90B37
:10054000C8CF62E070E0A4CF8C0F9D1F24D4F801C7
:1005500024813581C3CF3093400320933F03F09231
:100560003A03E0923903F0923C03E0923B03F70137
:10057000118300831383028375836483CB01820F0D
:10058000931FDF91CF911F910F91FF90EF90F7C3D1
:10059000CF93DF93FC01A0913903B0913A03A817E0
:1005A000B90709F1C281D3818081918199838883C0
:1005B000A081B1811396DC93CE9312971782168295
:1005C00083E0A933B80761F014962D913C911597FB
:1005D00084819581820F931F15969C938E93149717
:1005E000DF91CF910895ED91FC911197F0933A032B
:1005F000E093390389E393E09383828317961C92F7
:100600001E921697E817F90729F12481358114966F
:100610008D919C911597820F931F958384832091D0
:1006200084003091850040913F0350914003241B8A
:10063000350B28173907A0F6BC01621B730B62301B
:10064000710528F0840F951FDF91CF91A4C3C901D4
:100650000296F8CFDF91CF919BC3CF93DF93DC015C
:100660001D968C911D97843099F170F5882349F17E
:10067000833031F45096ED91FC91519711821082A4
:100680008FEF9FEF51969C938E9350971D961C92DF
:100690001D9714962C911497ECE2F3E00190F081F1
:1006A000E02D94819217D0F71196FC93EE93C281BE
:1006B000D3811396DC93CE931297B983A883B38327
:1006C000A283DF91CF910895853089F08730C1F6FC
:1006D0001296ED91FC9113978D919C9111979183B6
:1006E0008083CD91DC911197FB83EA83C9CF50962B
:1006F000ED91FC91519784818F5F8483E9CFECE287
:10070000F3E0F183E083F383E2831482F087E783ED
:10071000F287E1870895CF93DF93DC011D961C9249
:100720001D9714962C911497ECE2F3E00190F08160
:10073000E02D94819217D0F71196FC93EE93C2812D
:10074000D3811396DC93CE931297B983A883B38396
:10075000A283CD01DF91CF910895CF93DF93ECE297
:10076000F3E063857485DB011D968C938081918114
:10077000EC01A881B981B183A0831396FC93EE9319
:1007800012979487838721E02D87BCD2DF91CF9188
:1007900008951F93CF93DF93CDB7DEB72A970FB697
:1007A000F894DEBF0FBECDBF182F6F3F8FEF7807D5
:1007B00011F120913703309138034DE253E0CE011F
:1007C00001964EDE812FC9DF8F819885892B19F024
:1007D000CE010196DDDEE0913703F0913803808988
:1007E00091892A960FB6F894DEBF0FBECDBFDF9178
:1007F000CF911F910895812FB0DFEDCFCF93DF937D
:10080000DC01C0913703D091380351967C936E93ED
:10081000509714962C9114978C818217D8F01D96BE
:100820001C921D97ECE2F3E00190F081E02D9481A1
:100830009217D0F71196FC93EE93C281D381139651
:10084000DC93CE931297B983A883B383A283DF91FD
:10085000CF9108951D86ECE2F3E00190F081E02D48
:1008600094819817D0F7CD01F983E883A281B381F1
:10087000BB83AA83CD93DC93D383C2839093380345
:100880008093370321E0FC012587BE013BD2DF9135
:10089000CF910895A0912C03B0912D03E0913703DF
:1008A000F091380381E014962C919481921708F00E
:1008B00080E00895CF93DF93A0913703B091380380
:1008C00040912C0350912D03EA01E881F981F093C6
:1008D0002D03E0932C038CE293E093838283509367
:1008E00038034093370381E08D871D961C921D9736
:1008F00014962C91149703C00190F081E02D9481FF
:100900002917D0F31196FC93EE938281938113966D
:100910009C938E931297EC01B983A883B383A2832F
:10092000BD01CA01EFD1DF91CF910895CF93DF933D
:10093000FC01448382E085871686438F128E118ED8
:10094000108E81E0878774876387ACE2B3E0B0875D
:10095000A7831996CD91DC911A97D287C187F88722
:10096000EF831A96FC93EE931997CF014296938BDF
:10097000828B0296958B848B978B868BCF01DF9130
:10098000CF910895CF93DF93EC014C815D81FA0103
:100990007C97CA01C197968385832F81DC0152968B
:1009A0002C935297288551962C93519729855096D0
:1009B0002C9350972A851F962C931F9721EB36E096
:1009C00053963C93539754962C938E81288139816A
:1009D000848392E095871686838F128E118E108EF7
:1009E00081E0878734872387CCE2D3E0D087C78331
:1009F00089859A8592878187DC011896FC93EE930E
:100A00001797FA87E987EA012A97D983C883DA0119
:100A100018970B2E11960C921197AC930A2E1B2E41
:100A200013961C920E9211241297CF01DF91CF9151
:100A30000895CF93DF93F894A5DFEC0160E070E0B8
:100A4000DDDE7894CE01DF91CF9108950F931F934F
:100A5000CF93DF93F8946C517109EC01C60FD71F47
:100A6000FE017597FE83ED83228B318B008B1787F8
:100A700081EB96E0938B848B4C8382E08D871E867E
:100A80004B8F1A8E198E188E81E08F8780E191E04E
:100A90009C878B87ECE2F3E0F887EF83A185B28532
:100AA000BA87A9871896DC93CE931797D287C18708
:100AB000CE0142969B8B8A8B02969D8B8C8B9F8B53
:100AC0008E8B60E070E0CE0199DE7894CE01DF91EC
:100AD000CF911F910F9108950F931F93CF93DF93A1
:100AE000C0913703D0913803998B888B8E010E5EAD
:100AF0001F4F8A899B890817190759F0FC0120812B
:100B000031813B8B2A8B07DE8A899B89801791076D
:100B1000A9F78F8581110CC0E985FA858F819885A9
:100B200090878783AF81B8851A96FC93EE931997C7
:100B30008FE0DF91CF911F910F910FCEF894CCCF22
:100B4000F894BC0188E025DE78940895E09137039D
:100B5000F09138036115710539F0DC01ED93FC93D8
:100B6000918B808B83E015CE8FEF9FEF0895DC0192
:100B7000ED91FC911197309731F01D921C92718B81
:100B8000608BCF01C8CD0895CF93DF9361157105B8
:100B900099F0E0913703F091380391838083EC0161
:100BA000AA81BB81B383A283ED93FC93FB83EA8389
:100BB00084E0DF91CF91EDCD8FEF9FEFDF91CF916B
:100BC0000895CF93DF93FC0180819181E817F907A5
:100BD00071F0EC01A881B981B183A0831396FC93D5
:100BE000EE931297798B688BDF91CF9194CDDF9143
:100BF000CF910895FC019183808393838283158232
:100C000014820895FC01908D692B608F85858A3050
:100C100059F08B3009F00895808968238613FBCF43
:100C2000118A108ACF0177CD80896823C9F708958A
:100C3000EF92FF921F93CF93DF937C01162FFC015D
:100C4000C081D1818C179D0791F08D81812B8D837F
:100C5000112319F08E81812321F06C818A819B817F
:100C6000D1DF0990D881C02DEC16FD0671F7DF9118
:100C7000CF911F91FF90EF900895EFE5F3E084EBA3
:100C800091E09183808384E392E09383828308954B
:100C9000F8949B0121503109719561957109E0919A
:100CA0005F03F09160034E0F5F1F420F531F4623F7
:100CB0005723820F931F68237923CA01860F971F3A
:100CC00020916103309162032817390750F08E1785
:100CD0009F0738F09093600380935F03CA01789474
:100CE000089580E090E078940895E4E3F2E088E4E9
:100CF00096E09183808313821282158214828AE3A4
:100D000092E078CF2F923F924F925F926F927F92B4
:100D10008F929F92AF92BF92CF92DF92EF92FF920B
:100D20000F931F93CF93DF93FB010DB605820EB691
:100D30000682FC0105800DBE06800EBEDF91CF91BC
:100D40001F910F91FF90EF90DF90CF90BF90AF90E9
:100D50009F908F907F906F905F904F903F902F90DB
:100D600008957894C201F1010995E8CE24D384E472
:100D700091E022D366D2AAD208D600C037C590939C
:100D800089008093880082E086BB80936F0008957D
:100D900010926F00089590938900809388000895C1
:100DA000AF92BF92CF92DF92EF92FF920F931F9379
:100DB000CF93DF93EC016B018A018C819D818417B5
:100DC000950710F40C811D816C857D85E884F9847C
:100DD000E61AF70A0E151F0598F1E016F106D0F095
:100DE000A801C6010E94AA138E819F819D878C87CE
:100DF0008C819D81801B910B9D838C83C801DF9129
:100E0000CF911F910F91FF90EF90DF90CF90BF9007
:100E1000AF900895A701C6010E94AA135801AE1809
:100E2000BF086E817F81A501C6018E0D9F1D0E94A6
:100E3000AA138E819F81A80EB91EBD86AC86D8CF1D
:100E4000A801C6010E94AA138C859D85800F911F61
:100E50009D878C87CDCFAF92BF92CF92DF92EF92DA
:100E6000FF920F931F93CF93DF93EC016B018A01E5
:100E70008C819D818417950710F40C811D818A85D2
:100E80009B85E884F984E81AF90A0E151F0598F184
:100E9000E016F106D0F0A801B6010E94AA138E81D7
:100EA0009F819B878A878C819D81801B910B9D836D
:100EB0008C83C801DF91CF911F910F91FF90EF902C
:100EC000DF90CF90BF90AF900895A701B6010E9428
:100ED000AA135801AE18BF08B6016E0D7F1DA501FB
:100EE0008E819F810E94AA138E819F81A80EB91EB8
:100EF000BB86AA86D8CFA801B6010E94AA138A850C
:100F00009B85800F911F9B878A87CDCF0F931F935F
:100F1000FC0191838083938382831582148277837B
:100F200066837587648773876287640F751F71870F
:100F3000608737872687118B008B1F910F9108954B
:100F4000FC01A285B38584859585A817B907E1F0D2
:100F500084819581019695838483CD010196938741
:100F600082876C9322853385808591852817390780
:100F700020F08681978193878287CF0160E070E0BF
:100F800020DE80E090E0089584819581892B01F333
:100F90008FEF9FEF08950F931F93CF93DF93EC0193
:100FA0008B01F89405C0B801CE01EEDD97FD27C096
:100FB0008C819D81892BB9F38C819D8101979D83C3
:100FC0008C83EC85FD85CF0101969D878C871081F0
:100FD000288539858217930720F08E819F819D8710
:100FE0008C87EE85FF85309711F0CE0109957894B6
:100FF000812F90E0DF91CF911F910F910895789408
:10100000DF91CF911F910F9108956F927F928F92F0
:101010009F92AF92BF92CF92DF92EF92FF920F9387
:101020001F93CF93DF936C017B013A014901FC01CF
:10103000A684B784F89441155105B9F08A01A80136
:10104000B701C601ADDEEC01892B21F1A114B10479
:1010500019F0C601F501099578940C1B1D0BEC0ED7
:10106000FD1EF8940115110551F700E010E0789489
:10107000C301801B910BDF91CF911F910F91FF90C6
:10108000EF90DF90CF90BF90AF909F908F907F9028
:101090006F900895B401C60177DD892B81F2E7CF07
:1010A0000F931F93FC0191838083938382835583E5
:1010B0004483778366837587648773876287460F67
:1010C000571F5187408737872687118B008B1F91C9
:1010D0000F910895FF920F931F93CF93DF93EC012D
:1010E000F62E8A01F89405C0B801CE014DDD97FDBA
:1010F0002AC08C819D81892BB9F38C819D810197B8
:101100009D838C83EA85FB85CF0101969B878A8727
:10111000F0822A853B85888599852817390720F034
:101120008E819F819B878A87EE85FF85309711F09E
:10113000CE010995789480E090E0DF91CF911F91E6
:101140000F91FF9008957894DF91CF911F910F91A7
:10115000FF900895CF93FC01A485B5858285938582
:101160008A179B07E1F0848195810196958384839A
:10117000CD01019695878487CC9120853185821792
:10118000930740F4CF0160E070E01BDD8C2F90E00E
:10119000CF9108958681978195878487F3CF848145
:1011A0009581892B01F38FEF9FEFF2CF6F927F92A2
:1011B0008F929F92AF92BF92CF92DF92EF92FF9267
:1011C0000F931F93CF93DF936C017B013A01490189
:1011D000FC01A684B784F89441155105B9F08A0141
:1011E000A801B701C60137DEEC01892B21F1A1145A
:1011F000B10419F0C601F501099578940C1B1D0B7B
:10120000EC0EFD1EF8940115110551F700E010E0F9
:101210007894C301801B910BDF91CF911F910F91A7
:10122000FF90EF90DF90CF90BF90AF909F908F9006
:101230007F906F900895B401C601A6DC892B81F2DE
:10124000E7CF81C221E0FC01208312821182049643
:10125000D1CCCF92DF92EF92FF920F931F93CF9357
:10126000DF93EC01F8941B8283E08883CE0173D274
:101270008F3F2FEF920761F022E028837894DF916F
:10128000CF911F910F91FF90EF90DF90CF90089535
:1012900025E02883F3CF0596B8CE2FEF3FEF0596D4
:1012A000B4CE479683CF2FEF3FEF47967FCF05967B
:1012B00072CE6FEF7FEF05966ECE47960BCF4FEF56
:1012C0005FEF479607CF80E090E0089526C3EF9246
:1012D000FF920F931F93CF93DF93EC019B017A0151
:1012E000FC018DE291E081939193FB83EA8381E09D
:1012F0008C83BE01675D7F4F8E0140E150E0CE01DF
:10130000059604DEBE01675C7F4F970140E150E027
:10131000CE014796C5DEDF91CF911F910F91FF90CF
:10132000EF900895CF93DF93EC01F894FDD282E023
:101330008C837894DF91CF9108951F93CF93DF939F
:10134000EC01162F89859A85892B51F0612FCE01EA
:101350000596F6DD97FD0EC0DF91CF911F910895A0
:1013600064E0CE01029664DC612FCE010596E8DDD3
:1013700097FFF2CF60E0CE010296DF91CF911F91EF
:1013800057CC0F931F93CF93DF938C014796E2DEE8
:10139000EC0197FD06C0CE01DF91CF911F910F9117
:1013A000089568E0C801029643DCCE01DF91CF9139
:1013B0001F910F9108950895FC01808185B9818165
:1013C00084B9828188B9838187B984818BB9858109
:1013D0008AB908951F920F920FB60F9211242F937E
:1013E0003F934F935F936F937F938F939F93AF93AD
:1013F000BF93EF93FF9381E0809363038091B900E3
:10140000E82FE87F8E2F90E0893C910510F184E968
:101410008093BC006EEF7FEF80E793E0A8DB8091C4
:101420006703811150C01092630334DA811142DAEC
:10143000FF91EF91BF91AF919F918F917F916F91AC
:101440005F914F913F912F910F900FBE0F901F9082
:101450001895FC01EC5CFF4F0C945A1340917903F2
:1014600050917A0380917D0390917E039C012F5FC0
:101470003F4F30937E0320937D032091BB00FA0100
:10148000E80FF91F208381EC8093BC0080916703F3
:10149000C8CF2091BB00E0917903F0917A0380914D
:1014A0007D0390917E03E80FF91F208384E98093E8
:1014B000BC0060E070E080E793E059DB8091670357
:1014C00084608093670384E98093BC006EEF7FEFB4
:1014D00080E793E04CDBA7CF81EC8093BC00E091E8
:1014E0007303F09174038091770390917803E80F70
:1014F000F91F20812093BB00209175033091760362
:10150000215031098217930709F440C00196909346
:1015100078038093770381EC8093BC00809167030C
:1015200080CF4091790350917A0380917D0390910F
:101530007E039C012F5F3F4F30937E0320937D03FA
:101540002091BB00FA01E80FF91F208380917B03F3
:1015500090917C03019720917D0330917E032817A1
:10156000390709F4A2C085EC8093BC008091670321
:1015700058CF80917B0390917C03019720917D034C
:1015800030917E032817390709F07DCF81E88093D9
:10159000BC008091670345CF20917B0330917C0391
:1015A0002150310980917D0390917E03821793072A
:1015B00009F4BAC021EC2093BC004091790350910A
:1015C0007A039C012F5F3F4F30937E0320937D036E
:1015D0002091BB00FA01E80FF91F208380917D0361
:1015E00090917E0320917B0330917C03215031093F
:1015F0008217930709F459C0019690937E03809354
:101600007D03B1CFE0917303F091740320917703D0
:1016100030917803E20FF31F80818093BB008091AB
:1016200075039091760301972817390709F02BCF9E
:10163000ADCF8091670382608093670344CF409170
:1016400073035091740380917703909178039C0108
:101650002F5F3F4F3093780320937703FA01E80F11
:10166000F91FDACF809167038160809367032BCFE6
:1016700080917203880F8093BB00809173039091D7
:101680007403892B69F0809175039091760300971C
:1016900039F020917703309178038217930729F46A
:1016A0008091BB0081608093BB0085E88093BC0083
:1016B00080916703B6CE8091770390917803209153
:1016C00075033091760382179307B8F08091790300
:1016D00090917A03892B61F180917B0390917C0337
:1016E000892B31F185EA8093BC008091670399CE04
:1016F00080917D0390917E0360CF209173033091A0
:101700007403AC014F5F5F4F5093780340937703AE
:10171000F901E80FF91F80818093BB0085E8809371
:10172000BC00809167037DCE21E82093BC0045CFAB
:1017300084E98093BC0060E070E080E793E017DA12
:10174000809167036ECE84E693E07CDD1092710396
:10175000109270030895EF92FF920F931F93FC0174
:1017600013826687508B4787328B218B148A138AAA
:10177000168B058BF08EE78A128E118E85EA809388
:10178000BC006FEF7FEFCF010C961F910F91FF9080
:10179000EF90DCC91F920F920FB60F9211242F9376
:1017A0003F934F935F936F937F938F939F93AF93E9
:1017B000BF93EF93FF9381E0809363030E94AE0198
:1017C0001092630367D8811175D8FF91EF91BF9193
:1017D000AF919F918F917F916F915F914F913F91C9
:1017E0002F910F900FBE0F901F90189510928000B0
:1017F000E1E8F0E088E08083109282001092890096
:1018000010928800109285001092840082E086BBBE
:1018100010926F0085E080830895E1ECF0E0808114
:101820008062808308951F920F920FB60F92112449
:101830002F933F934F935F936F937F938F939F93D8
:10184000AF93BF93EF93FF9381E080936303809105
:10185000C000982F9C71D9F46091C60081E993E093
:101860006CDD1092630316D8811124D8FF91EF919B
:10187000BF91AF919F918F917F916F915F914F91A8
:101880003F912F910F900FBE0F901F90189583FDE1
:1018900009C060E082FD606284FD606483E993E0DA
:1018A000C7D9DACF60E8F6CF1F920F920FB60F922A
:1018B00011242F933F934F935F936F937F938F9355
:1018C0009F93AF93BF93EF93FF9381E08093630364
:1018D00081E993E056DD97FD1AC08093C60010920F
:1018E00063030E944A0481110E945A04FF91EF9100
:1018F000BF91AF919F918F917F916F915F914F9128
:101900003F912F910F900FBE0F901F9018958091CF
:10191000C1008F7D8093C100E2CF4DE05CE060E0CC
:1019200070E081E993E0D3CC6115710519F181591B
:10193000934009F00895FB0180818093C400818168
:101940008F708093C50082E08093C00088E9809307
:10195000C10082818130B9F0A0F0823071F0843012
:1019600071F48091C10084608093C10086E080930F
:10197000C200089561E471E0DACF84E0F8CF86E038
:10198000F6CF80E0F4CF82E0F2CF109269001DBA6A
:1019900008952F923F924F925F926F927F928F9213
:1019A0009F92AF92BF92CF92DF92EF92FF920F93EE
:1019B0001F93CF93DF93CDB7DEB7A2970FB6F894FE
:1019C000DEBF0FBECDBF1C016B01588F4F8B1E8A2F
:1019D0001D8A9E012E5F3F4F3E872D87AE014F5FD0
:1019E0005F4F588B4F87241B350B38A32F8F215007
:1019F00031093AA329A3CE010C969A8B898B8601D3
:101A00000F5F1F4FD6016C916623B9F0653281F1EB
:101A1000D101ED91FC910680F781E02DC10109957E
:101A2000ED89FE893196FE8BED8B680186010F5F93
:101A30001F4FD6016C916111E9CF8D899E89A296C5
:101A40000FB6F894DEBF0FBECDBFDF91CF911F91CF
:101A50000F91FF90EF90DF90CF90BF90AF909F904D
:101A60008F907F906F905F904F903F902F90089550
:101A7000D60111968C9111978D3209F4ECC01A8E13
:101A8000803309F4E1C020E2298FA8014F5F5F4F46
:101A900000E010E0EF89F88D13C090813296980134
:101AA000220F331F000F111F000F111F000F111FF6
:101AB000020F131F090F111D4F5F5F4FD6018C914D
:101AC0006A0190ED980F9A3050F38A3231F3F88F13
:101AD000EF8B20E030E08E3209F496C0982F9F7D86
:101AE0009C3409F47EC0AFEBA80F91E0AA3108F056
:101AF00090E0482F50E0FA01E454F109E533F10594
:101B000008F4B1C08983EF8DF8A189A09AA0AE0135
:101B10004F5F5F4F7A015801AE1ABF0AB7FCD9C0B8
:101B20005A8D51115BC0002711270A191B0909F4AE
:101B30005BC1D7018C918D3209F45FC1798CD101E1
:101B4000ED91FC910680F781E02D672DC10109958B
:101B50000F5F1F4FA1F72D893E892F5F3F4F81E017
:101B600090E08A199B09A901481B590B5E8B4D8B8C
:101B700097FC45CFA12CB12C8401F70161917F0125
:101B8000D101ED91FC910680F781E02DC10109950D
:101B90000150110990F78D899E89019697FC2AC101
:101BA000F401E80FF91FFE8BED8BA114B10409F4C9
:101BB00026CF8501F98CD101ED91FC910680F7814A
:101BC000E02D6F2DC101099501501109A1F7ED8993
:101BD000FE89EA0DFB1DFE8BED8B11CF97FECCCF5E
:101BE000E4CFD6014C91442309F48CCFFFEFCF1AF8
:101BF000DF0A842F90E0FC01E454F109E533F1059C
:101C000008F4F5C0842F7ECFDF010FC09C9112969F
:101C1000A901440F551F220F331F220F331F220F1C
:101C2000331F240F351F290F311DEFEFCE1ADE0AA7
:101C3000F6013197808190ED980F9A3048F38A32FF
:101C400029F3B88FAF8B4ACFF80181810F5F1F4F07
:101C5000F0E3F98F1ACF86010E5F1F4F12968C9119
:101C6000B1E0BA8F0DCFE350FF4F24C58F89988D17
:101C70000296AF89B88DED90FC90E114F10409F45F
:101C80006AC1F7012115310509F4D1C0408144230F
:101C900009F466C121503109F701319605C0215080
:101CA000310908F44DC1FB01BF016F5F7F4F4081D7
:101CB0004111F5CFEE19FF094F0121E0821A910879
:101CC000988F8F8B30E2398F5801AE1ABF0AB7FE5A
:101CD00027CFA12CB12C24CFAF89B88D8C918983CB
:101CE000EF8DF8A189A09AA01296B88FAF8BB0E2C1
:101CF000B98F9E012F5F3F4F79010DCF91E04AE0F0
:101D000050E060E070E0911164C0EF89F88D808050
:101D10009180A12CB12C3296F88FEF8B24013501E4
:101D20009E01245F3F4F3C8B2B8B1C8F0B8F7A01C6
:101D30008B01DE8ECD8EC501B401A80197019ED422
:101D40009B01205D3F4F2A33310514F0295F3F4F3F
:101D5000D22EAB89BC892E93BC8BAB8BC501B40151
:101D6000A80197018BD449015A01C301B201A8010E
:101D7000970184D429013A01232B242B252BD9F652
:101D80000B8D1C8DFD2CCD8CDE8C89899A89EB897D
:101D9000FC898E1B9F0BDE01119631969D01280F49
:101DA000391F01C0F190FD92A217B307D9F74C017A
:101DB000F1E08F1A9108FC019E012F5F3F4F7901DE
:101DC000AACE91E048E050E060E070E0992309F489
:101DD0009CCFAF89B88D8D909D90AD90BC9013979E
:101DE0001496B88FAF8B9ACF97FEC4CE08CEEE5C18
:101DF000FE4F60C4812C912CD3CEB98DB03309F045
:101E00009DCEEFEFEE1AFE0AD101ED91FC91068016
:101E1000F781E02D6DE2C1010995ED89FE893196CA
:101E2000FE8BED8BF1E08F1A9108798C88CE2081A2
:101E3000222309F495C02EEF3FE72ECF40E150E07A
:101E400060E070E060CFAA3108F459C0EF89F88DE6
:101E500080809180092C000CAA08BB083296F88F6C
:101E6000EF8BB7FC58C0AE014F5F5F4F5C8F4B8F5D
:101E70008B8D9C8D0B969C8B8B8B240135011E8F3B
:101E80000D8F7C01C501B4012AE030E040E050E054
:101E9000F5D3605D7F4F162FD7016E937D01490109
:101EA0005A01C301B2012AE030E040E050E0E6D33D
:101EB00029013A01232B242B252B21F7C701F12ED1
:101EC0000D8D1E8DEB8DFC8DDC0111962B893C89CF
:101ED000281B390BC9018E0F9F1F01C0FD90F19285
:101EE000E817F907D9F74F855889E41BF50B4F011F
:101EF00051E0851A9108CE0101967C010CCEAF8984
:101F0000B88D8D909D90AD90BC9013971496B88F1E
:101F1000AF8BB7FEA8CF8DE28983B094A094909444
:101F20008094811C911CA11CB11C9E012E5F3F4F0F
:101F30003C8F2B8F9DCF40E150E060E070E049CFB7
:101F4000EE19FF094F0151E0851A9108988F8F8B88
:101F500080E2898FE0CD4AE4E42E41E0F42E91CE78
:101F6000580117FD0EC05A8D988F8F8B511106C0E6
:101F700088248A94982C80E2898FD5CDF0E2F98F5D
:101F800014CEA12CB12CEFCFCF93DF93CDB7DEB71A
:101F9000AE01475F5F4F6F8178858D819E81F9DC4F
:101FA000DF91CF910895CF93DF93CDB7DEB76497DC
:101FB0000FB6F894DEBF0FBECDBFE0913703F091AE
:101FC000380381E591E0948783876B847C84498022
:101FD0005A802CE5222E21E0322E31E9A32E33E067
:101FE000B32E85B120E2822785B93F922F92BF920E
:101FF000AF92CADF812C912CC40124D984E89EE1E0
:102000000E94A005CC24CA94DC2C95E0E92EF12C8A
:10201000830125E030E0A20165E0C4011AD980E126
:102020009AE70E94A00584E891E09F938F93BF9266
:10203000AF92AADF0FB6F894DEBF0FBECDBFD1CFEF
:102040000E94B6060E949701FCD860E070E081E92A
:1020500093E068D900E010E023ED3FE040E861E85C
:1020600070E082E492E00E942605E0919103F091F5
:1020700092030280F381E02D4EE050E064EA71E0CB
:1020800081E993E0099588E09DE30E94A005FBCFDC
:10209000ABE0B0E0EDE4F0E117C36C017B013A0185
:1020A000FC0117821682838181FFF9C0CE0101965F
:1020B0004C01F601B380F701B3FC0591B3FE019129
:1020C0007F01002309F4E7C0053249F4B3FC059110
:1020D000B3FE01917F01053211F010E017C0B60187
:1020E000802F90E07ED353013501E3CF002309F424
:1020F000D2C0602F70E085ED92E021D3892B49F0AA
:10210000F701B3FC0591B3FE01917F0117FFEECFFC
:1021100004C0033239F00C3619F0011105C0BBC000
:102120001068EECF10E1ECCF602F70E08EEC92E003
:1021300006D3892B41F05301F4E0AF0EB11CB60178
:102140008FE390E010C0033631F0033771F00335B0
:1021500001F511600AC0530182E0A80EB11CB6015E
:10216000F301808191813DD3BFCF5301F2E0AF0EE7
:10217000B11CF30160807180F30110FD859110FFA7
:1021800081913F01882309F4AFCFB60190E029D3B4
:10219000F3CF043611F0093621F5530117FF09C0BA
:1021A000F4E0AF0EB11CF3016081718182819381F3
:1021B0000AC0F2E0AF0EB11CF30160817181072EFD
:1021C000000C880B990B1F7E97FF08C09095809597
:1021D000709561957F4F8F4F9F4F10642AE030E0DC
:1021E00030C0003791F040F40835A1F00F3609F007
:1021F00052C028E030E011C0053719F0083731F03F
:102200004AC01F7E2AE030E008C01061146220E15D
:1022100030E003C0146020E132E0530117FF09C031
:10222000F4E0AF0EB11CF301608171818281938172
:1022300008C0F2E0AF0EB11CF3016081718180E053
:1022400090E0A40123D3082F081916FF04C0B6019B
:102250008DE290E0C6D214FF13C0FE01E00FF11D25
:102260008081803369F0B60180E390E0BAD212FF3A
:1022700007C01072812F90E0B601885A9F4FB1D2EB
:102280000150F401E00FF11D8081B60190E0A9D268
:102290000111F6CF29CFF6018681978102C08FEF19
:1022A0009FEF2B96EEE02CC220FD09C0FC0123FD20
:1022B00005C022FF02C07383628351834083089567
:1022C00044FD17C046FD17C0AB01BC01DA01FB019C
:1022D000AA0FBB1FEE1FFF1F1094D1F74A0F5B1F01
:1022E0006E1F7F1FCB01BA01660F771F881F991FD2
:1022F00009C033E001C034E0660F771F881F991FC3
:102300003150D1F7620F711D811D911D08950F93FA
:102310001F93CF93DF938C01C80125D2EC0197FD69
:1023200006C005D2892BC1F7B801CE0196D2CE01E5
:10233000DF91CF911F910F9108958F929F92AF924D
:10234000BF92EF92FF920F931F93CF93DF938C0175
:10235000D62F7A01B22E07D29C0133272B323105BA
:1023600031F02D32310559F48B2D8068B82ED150C3
:1023700011F480E061C0C801F6D197FDFACFCB2DF2
:10238000CD7F2B2D2073F9F48033E9F4AA24AA948D
:10239000AD0E09F43EC0C801E6D197FD3AC09C01DC
:1023A0002F7D33272835310541F4C264D25089F19D
:1023B000C801D9D197FF07C02CC0B6FE02C0C260C9
:1023C00001C0C261DA2D812C912C540120ED280F1F
:1023D000283078F0C4FF03C0B8013FD217C02A30BC
:1023E00040F0C6FFF9CF2F7D3FEE320F3630A0F719
:1023F00027504C2FC501B40163DF4B015C01C26063
:10240000D15051F0C801AFD197FFE0CFC1FD04C05A
:10241000B0CF812C912C5401C7FF08C0B094A09478
:1024200090948094811C911CA11CB11C2C2FB5018F
:10243000A401C70139DF81E0DF91CF911F910F9196
:10244000FF90EF90BF90AF909F908F900895A0E085
:10245000B0E0ECE2F2E137C16C01EB015A01FC01A2
:1024600017821682512CF601F380FE01F3FC859150
:10247000F3FE8191182FEF01882309F4D4C090E076
:1024800056D1892B19F0C60142DFEDCF153241F448
:10249000FE01F3FC1591F3FE1191EF01153271F479
:1024A000C60161D197FDBDC0412F50E09C0133278B
:1024B00024173507C1F2B601D0D1B5C01A3239F4AC
:1024C000F3FC1591F3FE1191EF0101E001C000E072
:1024D000E12C20ED210F2A3078F402606E2D70E09F
:1024E00080E090E040E2ECDEE62EFE01F3FC159188
:1024F000F3FE1191EF01EDCF01FF03C0E11003C026
:1025000092C0EE24EA94183619F01C3651F010C02F
:10251000FE01F3FC1591F3FE1191EF01183641F421
:1025200008600460FE01F3FC1591F3FE1191EF01C8
:10253000112309F478C0612F70E085EE92E0FFD09E
:10254000892B09F470C000FD07C0F50180809180DF
:10255000C50102965C0102C0812C912C1E3649F403
:10256000F6014681578160E070E0202FC4019CDEB7
:102570007ACF1336A1F401FD02C0EE24E394C60124
:10258000F2D097FD4EC08114910429F0F4018083AC
:10259000C40101964C01EA94E110F1CF3EC0C6019E
:1025A000B6DE97FD3EC01F3649F128F4143621F1FE
:1025B000193639F125C0133771F01537E9F020C00D
:1025C0008114910429F0F4016082C40101964C0148
:1025D000EA94EE2059F0C601C6D03C0197FD06C032
:1025E000A6D0892B69F3B601C30137D181149104B8
:1025F000A1F0F401108211C0006203C0006101C0AB
:102600000064202FA4016E2DC60197DE811105C044
:10261000F6018381807329F406C000FD24CF539412
:1026200022CF552019F0852D90E002C08FEF9FEF4B
:10263000CDB7DEB7EFE063C0A1E21A2EAA1BBB1B29
:10264000FD010DC0AA1FBB1FEE1FFF1FA217B3077E
:10265000E407F50720F0A21BB30BE40BF50B661F94
:10266000771F881F991F1A9469F760957095809558
:1026700090959B01AC01BD01CF010895052E97FBFC
:1026800016F400940FD057FD05D0D6DF07FC02D01A
:1026900046F408C050954095309521953F4F4F4FD7
:1026A0005F4F089590958095709561957F4F8F4FFE
:1026B0009F4F0895EE0FFF1F0590F491E02D0994B0
:1026C0002F923F924F925F926F927F928F929F9242
:1026D000AF92BF92CF92DF92EF92FF920F931F9330
:1026E000CF93DF93CDB7DEB7CA1BDB0B0FB6F894E1
:1026F000DEBF0FBECDBF09942A88398848885F8421
:102700006E847D848C849B84AA84B984C884DF8091
:10271000EE80FD800C811B81AA81B981CE0FD11D75
:102720000FB6F894DEBF0FBECDBFED010895911135
:102730000BC1803219F089508550D0F70895FC0103
:102740000590061621F00020D9F7C00108953197B1
:10275000CF010895FB01DC0102C001900D924150B0
:102760005040D8F70895CF93DF93EC012B8120FFE1
:1027700033C026FF0AC02F7B2B838E819F81019659
:102780009F838E838A8190E029C022FF0FC0E88159
:10279000F9818081082E000C990B009719F42062B2
:1027A0002B831AC03196F983E8830EC0EA85FB8536
:1027B000099597FF09C02B81019611F080E201C0B5
:1027C00080E1822B8B8308C02E813F812F5F3F4F9A
:1027D0003F832E83992702C08FEF9FEFDF91CF9128
:1027E00008950F931F93CF93DF93FB01238121FD66
:1027F00003C08FEF9FEF2CC022FF16C04681578188
:10280000248135814217530744F4A081B1819D0191
:102810002F5F3F4F318320838C93268137812F5F39
:102820003F4F3783268314C08B01EC01FB010084EA
:10283000F185E02D0995892BE1F6D80116968D9149
:102840009C911797019617969C938E931697CE019D
:10285000DF91CF911F910F910895FB01238120FFFC
:1028600012C026FD10C08F3F3FEF930761F08283B7
:102870002F7D2064238326813781215031093783BE
:102880002683992708958FEF9FEF0895FA01AA27CD
:10289000283051F1203181F1E8946F936E7F6E5FA3
:1028A0007F4F8F4F9F4FAF4FB1E03ED0B4E03CD051
:1028B000670F781F891F9A1FA11D680F791F8A1F34
:1028C000911DA11D6A0F711D811D911DA11D20D09B
:1028D00009F468943F912AE0269F11243019305D55
:1028E0003193DEF6CF010895462F4770405D419346
:1028F000B3E00FD0C9F7F6CF462F4F70405D4A3393
:1029000018F0495D31FD4052419302D0A9F7EACF5A
:10291000B4E0A6959795879577956795BA95C9F789
:1029200000976105710508959B01AC010A2E06947C
:102930005795479537952795BA95C9F7620F731F35
:10294000841F951FA01D0895992788270895F8943E
:02295000FFCFB7
:1029520069646C65000001C3022C0301960100004A
:102962006E6F6E616D65006D61696E0016402802C2
:10297200021C040507090B000D0E000000000053A5
:10298200094D095F0959095D09570951094B096345
:1029920009330003FF20FF00FF02286E756C6C29CB
:1029A200004D617374657253656E6400696E69638C
:1029B20069616E646F2070726F636573736F2064F8
:1029C2006520656E76696F20646F206D6173746532
:1029D200720D0A0066696E616C206461206578651B
:1029E2006375C3A7C3A36F206461207468726561B5
:1029F200640D0A0048656C6C6F20576F726C64211D
:042A02000D0A0000B9
:00000001FF
