:1000000077C1000092C1000090C100008EC10000C5
:100010008CC100008AC1000088C1000086C10000B8
:1000200084C1000082C1000080C100000C94CB0B91
:100030007CC100007AC1000078C1000076C10000D8
:1000400074C1000072C100000C94140C0C94550C87
:100050006CC100006AC1000068C1000066C10000F8
:100060000C94EA0962C100003C0B070A070A070A60
:10007000070A070A070A070A420B070A070A070ABC
:10008000070A070A070A070A420B070A070A070AAC
:10009000070A070A070A070A650B070A070A070A79
:1000A000070A070A070A070A5F0A070A070A070A70
:1000B000070A070A070A070A650B070A070A070A59
:1000C000070A070A070A070A5F0A070A070A070A50
:1000D000070A070A070A070A230B070A070A070A7B
:1000E000070A070A070A070AA70A070A070A070AE8
:1000F000070A070A070A070A5F0A070A070A070A20
:10010000070A070A070A070A920A070A070A070ADC
:10011000070A070A070A070A4A0A070A070A070A14
:10012000070A070A070A070ABA0A070A070A070A94
:10013000070A070A070A070ACD0A070A070A070A71
:10014000070A070A070A070A070A070A070A070A27
:10015000070A070A070A070A070A070A070A070A17
:10016000070A070A070A070A820B070A070A070A8B
:10017000070A070A070A070A030B070A070A070AFA
:10018000070A070A070A070A070A070A070A070AE7
:10019000070A070A070A070A070A070A070A070AD7
:1001A000070A070A070A070A6D0A070A070A070A61
:1001B000070A070A070A070A700A070A070A070A4E
:1001C000070A070A070A070A2E0A070A070A070A80
:1001D000070A070A070A070A290B070A070A070A74
:1001E000070A070A070A070A440A070A070A070A4A
:1001F000070A070A070A070A440A240F830D830D1A
:10020000830D830D240F830D830D830D830D830DCB
:10021000E30E830D830D830D830D830D800E830DFF
:10022000830D1F0F830D830D830D830D830D830DB0
:10023000830D830D830D830D6D0E240F830D830DB0
:10024000830D830D240F830D830D830D830D830D8B
:10025000E30E830D830D830D370E830D800E830D0A
:10026000830D1F0F800F030E030E030E030E800F6E
:10027000030E030E030E030E030EE20E030E030E17
:10028000030E030E030E7F0E030E030E9C0F030ED0
:10029000030E030E030E030E030E030E030E030ED6
:1002A000030E6D0E800F030E030E030E030E800F60
:1002B000030E030E030E030E030EE20E030E030ED7
:1002C000030E370E030E7F0E030E030E9C0F4546E2
:1002D0004765666700202B2D2E303132333435369A
:1002E00037383968006364696E6F707375785800C9
:1002F00011241FBECFEFD8E0DEBFCDBF11E0A0E0DC
:10030000B1E0E4EBF9E202C005900D92A43EB10722
:10031000D9F724E0A4EEB1E001C01D92AA30B207E3
:10032000E1F70E9451100C94D8146ACEFFCFE7D1A8
:1003300088D0A3D4DAD440E867E171E083E793E0A2
:10034000F5D2FC01909368038093670391E0958751
:1003500090939303789485E091E06BC3CF92DF9202
:10036000EF92FF920F931F93CF93DF93C091690396
:10037000D0916A032C813D8189E6E82E83E0F82E36
:10038000609184007091850040916F0350917003DB
:100390008B01041B150B0217130790F42AC08885E4
:1003A0009985F6010995C0916903D0916A032C8162
:1003B0003D810217130720F340916F0350917003A2
:1003C000420F531F5093700340936F03021B130B94
:1003D000E881F981F382E282F0936A03E093690392
:1003E000CE80DF801F821E82E956F340C1F6D0D452
:1003F000D6CFF3E0C936DF07D9F07093700360936E
:100400006F038C819D81801B910B9D838C83823037
:10041000910558F0860F971FDF91CF911F910F9193
:10042000FF90EF90DF90CF90B6C482E090E0F2CFE3
:10043000DF91CF911F910F91FF90EF90DF90CF90C0
:100440000895ECE5F3E089E693E096878587908B45
:1004500087878FEF9FEF928B818B148A138A089581
:10046000EF92FF920F931F93CF93DF937C01DC01F8
:1004700019963C932E93189717965C934E93169764
:1004800020918400309185006230710508F459C0D4
:100490000091690310916A03B3E009361B0709F460
:1004A0005AC080916F0390917003281B390BEB01A8
:1004B000C20FD31FD801C217D307E0F114962D91B4
:1004C0003C911597C217D30748F43EC0C21BD30B0B
:1004D000D8010D911C91F801248135812C173D071D
:1004E000A8F3D7010D931C93D8011296ED91FC91BE
:1004F0001397D7011396FC93EE931297F182E08243
:10050000F801F382E2821596DC93CE9314978481EE
:1005100095818C1B9D0B958384838FEF9FEF909328
:100520006E0380936D03DF91CF911F910F91FF9028
:10053000EF90089514968D919C911597C81BD90B37
:10054000C8CF62E070E0A4CF8C0F9D1F24D4F801C7
:1005500024813581C3CF3093700320936F03F092D1
:100560006A03E0926903F0926C03E0926B03F70177
:10057000118300831383028375836483CB01820F0D
:10058000931FDF91CF911F910F91FF90EF90F7C3D1
:10059000CF93DF93FC01A0916903B0916A03A81780
:1005A000B90709F1C281D3818081918199838883C0
:1005B000A081B1811396DC93CE9312971782168295
:1005C00083E0A936B80761F014962D913C911597F8
:1005D00084819581820F931F15969C938E93149717
:1005E000DF91CF910895ED91FC911197F0936A03FB
:1005F000E093690389E693E09383828317961C92C4
:100600001E921697E817F90729F12481358114966F
:100610008D919C911597820F931F958384832091D0
:1006200084003091850040916F0350917003241B2A
:10063000350B28173907A0F6BC01621B730B62301B
:10064000710528F0840F951FDF91CF91A4C3C901D4
:100650000296F8CFDF91CF919BC3CF93DF93DC015C
:100660001D968C911D97843099F170F5882349F17E
:10067000833031F45096ED91FC91519711821082A4
:100680008FEF9FEF51969C938E9350971D961C92DF
:100690001D9714962C911497ECE5F3E00190F081EE
:1006A000E02D94819217D0F71196FC93EE93C281BE
:1006B000D3811396DC93CE931297B983A883B38327
:1006C000A283DF91CF910895853089F08730C1F6FC
:1006D0001296ED91FC9113978D919C9111979183B6
:1006E0008083CD91DC911197FB83EA83C9CF50962B
:1006F000ED91FC91519784818F5F8483E9CFECE584
:10070000F3E0F183E083F383E2831482F087E783ED
:10071000F287E1870895CF93DF93DC011D961C9249
:100720001D9714962C911497ECE5F3E00190F0815D
:10073000E02D94819217D0F71196FC93EE93C2812D
:10074000D3811396DC93CE931297B983A883B38396
:10075000A283CD01DF91CF910895CF93DF93ECE594
:10076000F3E063857485DB011D968C938081918114
:10077000EC01A881B981B183A0831396FC93EE9319
:1007800012979487838721E02D87BCD2DF91CF9188
:1007900008951F93CF93DF93CDB7DEB72A970FB697
:1007A000F894DEBF0FBECDBF182F6F3F8FEF7807D5
:1007B00011F120916703309168034DE253E0CE01BF
:1007C00001964EDE812FC9DF8F819885892B19F024
:1007D000CE010196DDDEE0916703F0916803808928
:1007E00091892A960FB6F894DEBF0FBECDBFDF9178
:1007F000CF911F910895812FB0DFEDCFCF93DF937D
:10080000DC01C0916703D091680351967C936E938D
:10081000509714962C9114978C818217D8F01D96BE
:100820001C921D97ECE5F3E00190F081E02D94819E
:100830009217D0F71196FC93EE93C281D381139651
:10084000DC93CE931297B983A883B383A283DF91FD
:10085000CF9108951D86ECE5F3E00190F081E02D45
:1008600094819817D0F7CD01F983E883A281B381F1
:10087000BB83AA83CD93DC93D383C2839093680315
:100880008093670321E0FC012587BE013BD2DF9105
:10089000CF910895A0915C03B0915D03E09167034F
:1008A000F091680381E014962C919481921708F0DE
:1008B00080E00895CF93DF93A0916703B091680320
:1008C00040915C0350915D03EA01E881F981F09366
:1008D0005D03E0935C038CE593E093838283509304
:1008E00068034093670381E08D871D961C921D97D6
:1008F00014962C91149703C00190F081E02D9481FF
:100900002917D0F31196FC93EE938281938113966D
:100910009C938E931297EC01B983A883B383A2832F
:10092000BD01CA01EFD1DF91CF910895CF93DF933D
:10093000FC01448382E085871686438F128E118ED8
:10094000108E81E0878774876387ACE5B3E0B0875A
:10095000A7831996CD91DC911A97D287C187F88722
:10096000EF831A96FC93EE931997CF014296938BDF
:10097000828B0296958B848B978B868BCF01DF9130
:10098000CF910895CF93DF93EC014C815D81FA0103
:100990007C97CA01C197968385832F81DC0152968B
:1009A0002C935297288551962C93519729855096D0
:1009B0002C9350972A851F962C931F9721EB36E096
:1009C00053963C93539754962C938E81288139816A
:1009D000848392E095871686838F128E118E108EF7
:1009E00081E0878734872387CCE5D3E0D087C7832E
:1009F00089859A8592878187DC011896FC93EE930E
:100A00001797FA87E987EA012A97D983C883DA0119
:100A100018970B2E11960C921197AC930A2E1B2E41
:100A200013961C920E9211241297CF01DF91CF9151
:100A30000895CF93DF93F894A5DFEC0160E070E0B8
:100A4000DDDE7894CE01DF91CF9108950F931F934F
:100A5000CF93DF93F8946C517109EC01C60FD71F47
:100A6000FE017597FE83ED83228B318B008B1787F8
:100A700081EB96E0938B848B4C8382E08D871E867E
:100A80004B8F1A8E198E188E81E08F8780E191E04E
:100A90009C878B87ECE5F3E0F887EF83A185B2852F
:100AA000BA87A9871896DC93CE931797D287C18708
:100AB000CE0142969B8B8A8B02969D8B8C8B9F8B53
:100AC0008E8B60E070E0CE0199DE7894CE01DF91EC
:100AD000CF911F910F9108950F931F93CF93DF93A1
:100AE000C0916703D0916803998B888B8E010E5E4D
:100AF0001F4F8A899B890817190759F0FC0120812B
:100B000031813B8B2A8B07DE8A899B89801791076D
:100B1000A9F78F8581110CC0E985FA858F819885A9
:100B200090878783AF81B8851A96FC93EE931997C7
:100B30008FE0DF91CF911F910F910FCEF894CCCF22
:100B4000F894BC0188E025DE78940895E09167036D
:100B5000F09168036115710539F0DC01ED93FC93A8
:100B6000918B808B83E015CE8FEF9FEF0895DC0192
:100B7000ED91FC911197309731F01D921C92718B81
:100B8000608BCF01C8CD0895CF93DF9361157105B8
:100B900099F0E0916703F091680391838083EC0101
:100BA000AA81BB81B383A283ED93FC93FB83EA8389
:100BB00084E0DF91CF91EDCD8FEF9FEFDF91CF916B
:100BC0000895CF93DF93FC0180819181E817F907A5
:100BD00071F0EC01A881B981B183A0831396FC93D5
:100BE000EE931297798B688BDF91CF9194CDDF9143
:100BF000CF910895FC019183808393838283158232
:100C000014820895FC01908D692B608F85858A3050
:100C100059F08B3009F00895808968238613FBCF43
:100C2000118A108ACF0177CD80896823C9F708958A
:100C3000EF92FF921F93CF93DF937C01162FFC015D
:100C4000C081D1818C179D0791F08D81812B8D837F
:100C5000112319F08E81812321F06C818A819B817F
:100C6000D1DF0990D881C02DEC16FD0671F7DF9118
:100C7000CF911F91FF90EF900895EFE8F3E084EE9D
:100C800091E09183808384E692E093838283089548
:100C9000F8949B0121503109719561957109E0919A
:100CA0008F03F09190034E0F5F1F420F531F462397
:100CB0005723820F931F68237923CA01860F971F3A
:100CC00020919103309192032817390750F08E1725
:100CD0009F0738F09093900380938F03CA01789414
:100CE000089580E090E078940895E4E6F2E088E4E6
:100CF00096E09183808313821282158214828AE6A1
:100D000092E078CF2F923F924F925F926F927F92B4
:100D10008F929F92AF92BF92CF92DF92EF92FF920B
:100D20000F931F93CF93DF93FB010DB605820EB691
:100D30000682FC0105800DBE06800EBEDF91CF91BC
:100D40001F910F91FF90EF90DF90CF90BF90AF90E9
:100D50009F908F907F906F905F904F903F902F90DB
:100D600008957894C201F1010995E8CE24D384E472
:100D700091E022D366D2AAD209D600C038C590939A
:100D800089008093880082E086BB80936F0008957D
:100D900010926F00089590938900809388000895C1
:100DA000AF92BF92CF92DF92EF92FF920F931F9379
:100DB000CF93DF93EC016B018A018C819D818417B5
:100DC000950710F40C811D816C857D85E884F9847C
:100DD000E61AF70A0E151F0598F1E016F106D0F095
:100DE000A801C6010E94DB138E819F819D878C879D
:100DF0008C819D81801B910B9D838C83C801DF9129
:100E0000CF911F910F91FF90EF90DF90CF90BF9007
:100E1000AF900895A701C6010E94DB135801AE18D8
:100E2000BF086E817F81A501C6018E0D9F1D0E94A6
:100E3000DB138E819F81A80EB91EBD86AC86D8CFEC
:100E4000A801C6010E94DB138C859D85800F911F30
:100E50009D878C87CDCFAF92BF92CF92DF92EF92DA
:100E6000FF920F931F93CF93DF93EC016B018A01E5
:100E70008C819D818417950710F40C811D818A85D2
:100E80009B85E884F984E81AF90A0E151F0598F184
:100E9000E016F106D0F0A801B6010E94DB138E81A6
:100EA0009F819B878A878C819D81801B910B9D836D
:100EB0008C83C801DF91CF911F910F91FF90EF902C
:100EC000DF90CF90BF90AF900895A701B6010E9428
:100ED000DB135801AE18BF08B6016E0D7F1DA501CA
:100EE0008E819F810E94DB138E819F81A80EB91E87
:100EF000BB86AA86D8CFA801B6010E94DB138A85DB
:100F00009B85800F911F9B878A87CDCF0F931F935F
:100F1000FC0191838083938382831582148277837B
:100F200066837587648773876287640F751F71870F
:100F3000608737872687118B008B1F910F9108954B
:100F4000FC01A285B38584859585A817B907E1F0D2
:100F500084819581019695838483CD010196938741
:100F600082876C9322853385808591852817390780
:100F700020F08681978193878287CF0160E070E0BF
:100F800020DE80E090E0089584819581892B01F333
:100F90008FEF9FEF08950F931F93CF93DF93EC0193
:100FA0008B01F89405C0B801CE01EEDD97FD27C096
:100FB0008C819D81892BB9F38C819D8101979D83C3
:100FC0008C83EC85FD85CF0101969D878C871081F0
:100FD000288539858217930720F08E819F819D8710
:100FE0008C87EE85FF85309711F0CE0109957894B6
:100FF000812F90E0DF91CF911F910F910895789408
:10100000DF91CF911F910F9108956F927F928F92F0
:101010009F92AF92BF92CF92DF92EF92FF920F9387
:101020001F93CF93DF936C017B013A014901FC01CF
:10103000A684B784F89441155105B9F08A01A80136
:10104000B701C601ADDEEC01892B21F1A114B10479
:1010500019F0C601F501099578940C1B1D0BEC0ED7
:10106000FD1EF8940115110551F700E010E0789489
:10107000C301801B910BDF91CF911F910F91FF90C6
:10108000EF90DF90CF90BF90AF909F908F907F9028
:101090006F900895B401C60177DD892B81F2E7CF07
:1010A0000F931F93FC0191838083938382835583E5
:1010B0004483778366837587648773876287460F67
:1010C000571F5187408737872687118B008B1F91C9
:1010D0000F910895FF920F931F93CF93DF93EC012D
:1010E000F62E8A01F89405C0B801CE014DDD97FDBA
:1010F0002AC08C819D81892BB9F38C819D810197B8
:101100009D838C83EA85FB85CF0101969B878A8727
:10111000F0822A853B85888599852817390720F034
:101120008E819F819B878A87EE85FF85309711F09E
:10113000CE010995789480E090E0DF91CF911F91E6
:101140000F91FF9008957894DF91CF911F910F91A7
:10115000FF900895CF93FC01A485B5858285938582
:101160008A179B07E1F0848195810196958384839A
:10117000CD01019695878487CC9120853185821792
:10118000930740F4CF0160E070E01BDD8C2F90E00E
:10119000CF9108958681978195878487F3CF848145
:1011A0009581892B01F38FEF9FEFF2CF6F927F92A2
:1011B0008F929F92AF92BF92CF92DF92EF92FF9267
:1011C0000F931F93CF93DF936C017B013A01490189
:1011D000FC01A684B784F89441155105B9F08A0141
:1011E000A801B701C60137DEEC01892B21F1A1145A
:1011F000B10419F0C601F501099578940C1B1D0B7B
:10120000EC0EFD1EF8940115110551F700E010E0F9
:101210007894C301801B910BDF91CF911F910F91A7
:10122000FF90EF90DF90CF90BF90AF909F908F9006
:101230007F906F900895B401C601A6DC892B81F2DE
:10124000E7CF82C221E0FC01208312821182049642
:10125000D1CCCF92DF92EF92FF920F931F93CF9357
:10126000DF93EC01F8941B8283E08883CE0174D273
:101270008F3F2FEF920761F022E028837894DF916F
:10128000CF911F910F91FF90EF90DF90CF90089535
:1012900025E02883F3CF0596B8CE2FEF3FEF0596D4
:1012A000B4CE479683CF2FEF3FEF47967FCF05967B
:1012B00072CE6FEF7FEF05966ECE47960BCF4FEF56
:1012C0005FEF479607CF80E090E0089527C3EF9245
:1012D000FF920F931F93CF93DF93EC019B017A0151
:1012E000FC018DE291E081939193FB83EA8381E09D
:1012F0008C83BE01675D7F4F8E0140E150E0CE01DF
:10130000059604DEBE01675C7F4F970140E150E027
:10131000CE014796C5DEDF91CF911F910F91FF90CF
:10132000EF900895CF93DF93EC01F894FED282E022
:101330008C837894DF91CF9108951F93CF93DF939F
:10134000EC01162F89859A85892B51F0612FCE01EA
:101350000596F6DD97FD0EC0DF91CF911F910895A0
:1013600064E0CE01029664DC612FCE010596E8DDD3
:1013700097FFF2CF60E0CE010296DF91CF911F91EF
:1013800057CC0F931F93CF93DF938C014796E2DEE8
:10139000EC0197FD06C0CE01DF91CF911F910F9117
:1013A000089568E0C801029643DCCE01DF91CF9139
:1013B0001F910F9108950895FC01808185B9818165
:1013C00084B9828188B9838187B984818BB9858109
:1013D0008AB908951F920F920FB60F9211242F937E
:1013E0003F934F935F936F937F938F939F93AF93AD
:1013F000BF93EF93FF9381E0809393038091B900B3
:10140000E82FE87F8E2F90E0893C910510F184E968
:101410008093BC006EEF7FEF80EA93E0A8DB8091C1
:101420009703811151C01092930334DA811142DA8B
:10143000FF91EF91BF91AF919F918F917F916F91AC
:101440005F914F913F912F910F900FBE0F901F9082
:101450001895FC01EC5CFF4F0C948B13E091A303F7
:10146000F091A4032091A7033091A803E20FF31F8A
:1014700080818093BB008091A5039091A603019782
:101480002817390709F483C081EC8093BC00809150
:101490009703C7CF2091BB00E091A903F091AA0365
:1014A0008091AD039091AE03E80FF91F208384E98A
:1014B0008093BC0060E070E080EA93E058DB8091AC
:1014C000970384608093970384E98093BC006EEF58
:1014D0007FEF80EA93E04BDBA6CF81EC8093BC00EA
:1014E000E091A303F091A4038091A7039091A80336
:1014F000E80FF91F20812093BB002091A5033091B4
:10150000A603215031098217930709F440C00196C0
:101510009093A8038093A70381EC8093BC008091F3
:1015200097037FCF4091A9035091AA038091AD0307
:101530009091AE039C012F5F3F4F3093AE032093F9
:10154000AD032091BB00FA01E80FF91F20838091C1
:10155000AB039091AC0301972091AD033091AE03A2
:101560002817390709F4ABC085EC8093BC00809143
:10157000970357CF8091AB039091AC0301972091D3
:10158000AD033091AE032817390709F07DCF81E80C
:101590008093BC008091970344CF2091AB0330919E
:1015A000AC03215031098091AD039091AE038217B5
:1015B000930709F4C3C021EC2093BC004091A90318
:1015C0005091AA039C012F5F3F4F3093AE032093AD
:1015D000AD032091BB00FA01E80FF91F2083809131
:1015E000AD039091AE032091AB033091AC03215039
:1015F00031098217930709F462C001969093AE03F4
:101600008093AD03B1CF4091A9035091AA0380917B
:10161000AD039091AE039C012F5F3F4F3093AE031B
:101620002093AD032091BB00FA01E80FF91F20833E
:1016300081EC8093BC0060E070E080EA93E097DA90
:1016400080919703EECE80919703826080939703F9
:101650003BCF4091A3035091A4038091A7039091A5
:10166000A8039C012F5F3F4F3093A8032093A7034B
:10167000FA01E80FF91FFCCE8091970381608093F7
:10168000970322CF8091A203880F8093BB008091A3
:10169000A3039091A403892B69F08091A5039091F5
:1016A000A603009739F02091A7033091A803821771
:1016B000930729F48091BB0081608093BB0085E88B
:1016C0008093BC0080919703ACCE8091A70390914A
:1016D000A8032091A5033091A60382179307B8F0C1
:1016E0008091A9039091AA03892B61F18091AB03AA
:1016F0009091AC03892B31F185EA8093BC008091F5
:1017000097038FCE8091AD039091AE0357CF209178
:10171000A3033091A403AC014F5F5F4F5093A80324
:101720004093A703F901E80FF91F80818093BB0064
:1017300085E88093BC008091970373CE21E82093C5
:10174000BC003CCF84E975CF84E993E07BDD109247
:10175000A1031092A0030895EF92FF920F931F939D
:10176000FC0113826687508B4787328B218B148A4A
:10177000138A168B058BF08EE78A128E118E85EAFE
:101780008093BC006FEF7FEFCF010C961F910F91FC
:10179000FF90EF90DBC91F920F920FB60F921124AA
:1017A0002F933F934F935F936F937F938F939F9369
:1017B000AF93BF93EF93FF9381E0809393030E94D5
:1017C000AE011092930366D8811174D8FF91EF9106
:1017D000BF91AF919F918F917F916F915F914F9149
:1017E0003F912F910F900FBE0F901F901895109260
:1017F0008000E1E8F0E088E080831092820010929F
:10180000890010928800109285001092840082E076
:1018100086BB10926F0085E080830895E1ECF0E0D4
:1018200080818062808308951F920F920FB60F927D
:1018300011242F933F934F935F936F937F938F93D5
:101840009F93AF93BF93EF93FF9381E080939303B4
:101850008091C000982F9C71D9F46091C60081ECF2
:1018600093E06BDD1092930315D8811123D8FF917B
:10187000EF91BF91AF919F918F917F916F915F9108
:101880004F913F912F910F900FBE0F901F90189581
:1018900083FD09C060E082FD606284FD606483ECCA
:1018A00093E0C6D9DACF60E8F6CF1F920F920FB659
:1018B0000F9211242F933F934F935F936F937F93D6
:1018C0008F939F93AF93BF93EF93FF9381E08093A8
:1018D000930381EC93E055DD97FD1AC08093C60019
:1018E000109293030E944A0481110E945A04FF91AE
:1018F000EF91BF91AF919F918F917F916F915F9188
:101900004F913F912F910F900FBE0F901F90189500
:101910008091C1008F7D8093C100E2CF4EE05CE0FA
:1019200060E070E081EC93E0D2CC6115710519F1B3
:10193000815C934009F00895FB0180818093C4008D
:1019400081818F708093C50082E08093C00088E918
:101950008093C10082818130B9F0A0F0823071F0B3
:10196000843071F48091C10084608093C10086E06E
:101970008093C200089561E471E0DACF84E0F8CF8B
:1019800086E0F6CF80E0F4CF82E0F2CF10926900DB
:101990001DBA08952F923F924F925F926F927F925D
:1019A0008F929F92AF92BF92CF92DF92EF92FF926F
:1019B0000F931F93CF93DF93CDB7DEB7A2970FB6E8
:1019C000F894DEBF0FBECDBF1C016B01588F4F8B4B
:1019D0001E8A1D8A9E012E5F3F4F3E872D87AE01D6
:1019E0004F5F5F4F588B4F87241B350B38A32F8FCA
:1019F000215031093AA329A3CE010C969A8B898BE9
:101A000086010F5F1F4FD6016C916623B9F06532D6
:101A100081F1D101ED91FC910680F781E02DC101AA
:101A20000995ED89FE893196FE8BED8B6801860163
:101A30000F5F1F4FD6016C916111E9CF8D899E898F
:101A4000A2960FB6F894DEBF0FBECDBFDF91CF9147
:101A50001F910F91FF90EF90DF90CF90BF90AF90CC
:101A60009F908F907F906F905F904F903F902F90BE
:101A70000895D60111968C9111978D3209F4ECC01E
:101A80001A8E803309F4E1C020E2298FA8014F5F4C
:101A90005F4F00E010E0EF89F88D13C0908132961F
:101AA0009801220F331F000F111F000F111F000F8D
:101AB000111F020F131F090F111D4F5F5F4FD6013A
:101AC0008C916A0190ED980F9A3050F38A3231F37D
:101AD000F88FEF8B20E030E08E3209F496C0982F1B
:101AE0009F7D9C3409F47EC0AFEBA80F91E0AA3132
:101AF00008F090E0482F50E0FA01E454F109E53392
:101B0000F10508F4B1C08983EF8DF8A189A09AA0EE
:101B1000AE014F5F5F4F7A015801AE1ABF0AB7FCA2
:101B2000D9C05A8D51115BC0002711270A191B0912
:101B300009F45BC1D7018C918D3209F45FC1798CB6
:101B4000D101ED91FC910680F781E02D672DC10157
:101B500009950F5F1F4FA1F72D893E892F5F3F4FDA
:101B600081E090E08A199B09A901481B590B5E8B03
:101B70004D8B97FC45CFA12CB12C8401F7016191CD
:101B80007F01D101ED91FC910680F781E02DC1012B
:101B900009950150110990F78D899E89019697FC4E
:101BA0002AC1F401E80FF91FFE8BED8BA114B104DB
:101BB00009F426CF8501F98CD101ED91FC910680C5
:101BC000F781E02D6F2DC101099501501109A1F791
:101BD000ED89FE89EA0DFB1DFE8BED8B11CF97FE83
:101BE000CCCFE4CFD6014C91442309F48CCFFFEF46
:101BF000CF1ADF0A842F90E0FC01E454F109E533A9
:101C0000F10508F4F5C0842F7ECFDF010FC09C9151
:101C10001296A901440F551F220F331F220F331FA5
:101C2000220F331F240F351F290F311DEFEFCE1A5E
:101C3000DE0AF6013197808190ED980F9A3048F3D3
:101C40008A3229F3B88FAF8B4ACFF80181810F5FB9
:101C50001F4FF0E3F98F1ACF86010E5F1F4F1296C8
:101C60008C91B1E0BA8F0DCFE350FF4F54C58F89EF
:101C7000988D0296AF89B88DED90FC90E114F10437
:101C800009F46AC1F7012115310509F4D1C0408179
:101C9000442309F466C121503109F701319605C08A
:101CA0002150310908F44DC1FB01BF016F5F7F4F27
:101CB00040814111F5CFEE19FF094F0121E0821A51
:101CC0009108988F8F8B30E2398F5801AE1ABF0A76
:101CD000B7FE27CFA12CB12C24CFAF89B88D8C9122
:101CE0008983EF8DF8A189A09AA01296B88FAF8B47
:101CF000B0E2B98F9E012F5F3F4F79010DCF91E088
:101D00004AE050E060E070E0911164C0EF89F88D26
:101D100080809180A12CB12C3296F88FEF8B24011A
:101D200035019E01245F3F4F3C8B2B8B1C8F0B8F0B
:101D30007A018B01DE8ECD8EC501B401A801970119
:101D4000CED49B01205D3F4F2A33310514F0295F2B
:101D50003F4FD22EAB89BC892E93BC8BAB8BC50178
:101D6000B401A8019701BBD449015A01C301B201D2
:101D7000A8019701B4D429013A01232B242B252B48
:101D8000D9F60B8D1C8DFD2CCD8CDE8C89899A8922
:101D9000EB89FC898E1B9F0BDE01119631969D010C
:101DA000280F391F01C0F190FD92A217B307D9F790
:101DB0004C01F1E08F1A9108FC019E012F5F3F4F0B
:101DC0007901AACE91E048E050E060E070E099230C
:101DD00009F49CCFAF89B88D8D909D90AD90BC904B
:101DE00013971496B88FAF8B9ACF97FEC4CE08CEB8
:101DF000EE5CFE4F90C4812C912CD3CEB98DB033C4
:101E000009F09DCEEFEFEE1AFE0AD101ED91FC91A3
:101E10000680F781E02D6DE2C1010995ED89FE890B
:101E20003196FE8BED8BF1E08F1A9108798C88CE7C
:101E30002081222309F495C02EEF3FE72ECF40E109
:101E400050E060E070E060CFAA3108F459C0EF893B
:101E5000F88D80809180092C000CAA08BB0832966E
:101E6000F88FEF8BB7FC58C0AE014F5F5F4F5C8FB0
:101E70004B8F8B8D9C8D0B969C8B8B8B240135010E
:101E80001E8F0D8F7C01C501B4012AE030E040E0D7
:101E900050E025D4605D7F4F162FD7016E937D01F2
:101EA00049015A01C301B2012AE030E040E050E0AC
:101EB00016D429013A01232B242B252B21F7C70106
:101EC000F12E0D8D1E8DEB8DFC8DDC0111962B8975
:101ED0003C89281B390BC9018E0F9F1F01C0FD9043
:101EE000F192E817F907D9F74F855889E41BF50BEC
:101EF0004F0151E0851A9108CE0101967C010CCE6C
:101F0000AF89B88D8D909D90AD90BC90139714962D
:101F1000B88FAF8BB7FEA8CF8DE28983B094A09421
:101F200090948094811C911CA11CB11C9E012E5F79
:101F30003F4F3C8F2B8F9DCF40E150E060E070E041
:101F400049CFEE19FF094F0151E0851A9108988F8A
:101F50008F8B80E2898FE0CD4AE4E42E41E0F42EBD
:101F600091CE580117FD0EC05A8D988F8F8B51114D
:101F700006C088248A94982C80E2898FD5CDF0E21F
:101F8000F98F14CEA12CB12CEFCFCF93DF93CDB727
:101F9000DEB7AE01475F5F4F6F8178858D819E818F
:101FA000F9DCDF91CF910895CF93DF93CDB7DEB702
:101FB0002A970FB6F894DEBF0FBECDBF81E08983AC
:101FC00082E08A8383E08B8384E08C8385E08D8349
:101FD000E0916703F091680381E591E0948783873E
:101FE000CE0106963C012FE5422E21E0522E31EC27
:101FF000A32E33E0B32E47E8242E41E0342E54E9DB
:10200000852E51E0952E85B190E2892785B95F92A2
:102010004F92BF92AF92B9DF84E89EE10E94A00583
:1020200084EFC82EDD24D39495E0E92EF12C8301B2
:1020300025E030E0AE014F5F5F4F65E084E993E05B
:1020400008D99F938F933F922F92BF92AF929DDFBB
:102050008E010F5F1F4F0FB6F894DEBF0FBECDBFCE
:10206000F80181918F011F928F939F928F92BF925F
:10207000AF928BDF0F900F900F900F900F900F90FB
:102080000615170569F78FE991E09F938F9381EC0F
:1020900093E09F938F9379DF0F900F900F900F90A5
:1020A000B2CF0E94B6060E949701CBD860E070E0E4
:1020B00081EC93E037D900E010E024ED3FE040E808
:1020C00061E870E082E792E00E942605E091C1039A
:1020D000F091C2030280F381E02D4EE050E06DEB01
:1020E00071E081EC93E0099588E09DE30E94A005F2
:1020F000FBCFABE0B0E0EEE7F0E117C36C017B0192
:102100003A01FC0117821682838181FFF9C0CE015A
:1021100001964C01F601B380F701B3FC0591B3FEC3
:1021200001917F01002309F4E7C0053249F4B3FCB3
:102130000591B3FE01917F01053211F010E017C047
:10214000B601802F90E07ED353013501E3CF002309
:1021500009F4D2C0602F70E085ED92E021D3892B85
:1021600049F0F701B3FC0591B3FE01917F0117FF20
:10217000EECF04C0033239F00C3619F0011105C05E
:10218000BBC01068EECF10E1ECCF602F70E08EEC9A
:1021900092E006D3892B41F05301F4E0AF0EB11C5D
:1021A000B6018FE390E010C0033631F0033771F0D1
:1021B000033501F511600AC0530182E0A80EB11C7D
:1021C000B601F301808191813DD3BFCF5301F2E08D
:1021D000AF0EB11CF30160807180F30110FD859199
:1021E00010FF81913F01882309F4AFCFB60190E041
:1021F00029D3F3CF043611F0093621F5530117FF27
:1022000009C0F4E0AF0EB11CF301608171818281DD
:1022100093810AC0F2E0AF0EB11CF30160817181BD
:10222000072E000C880B990B1F7E97FF08C0909516
:102230008095709561957F4F8F4F9F4F10642AE076
:1022400030E030C0003791F040F40835A1F00F368F
:1022500009F052C028E030E011C0053719F0083706
:1022600031F04AC01F7E2AE030E008C010611462DD
:1022700020E130E003C0146020E132E0530117FF99
:1022800009C0F4E0AF0EB11CF3016081718182815D
:10229000938108C0F2E0AF0EB11CF301608171813F
:1022A00080E090E0A40123D3082F081916FF04C092
:1022B000B6018DE290E0C6D214FF13C0FE01E00F1C
:1022C000F11D8081803369F0B60180E390E0BAD2DD
:1022D00012FF07C01072812F90E0B601885A9F4FFD
:1022E000B1D20150F401E00FF11D8081B60190E000
:1022F000A9D20111F6CF29CFF6018681978102C0BC
:102300008FEF9FEF2B96EEE02CC220FD09C0FC0161
:1023100023FD05C022FF02C0738362835183408383
:10232000089544FD17C046FD17C0AB01BC01DA019A
:10233000FB01AA0FBB1FEE1FFF1F1094D1F74A0F1E
:102340005B1F6E1F7F1FCB01BA01660F771F881FAF
:10235000991F09C033E001C034E0660F771F881F62
:10236000991F3150D1F7620F711D811D911D089584
:102370000F931F93CF93DF938C01C80125D2EC01FB
:1023800097FD06C005D2892BC1F7B801CE0196D2C0
:10239000CE01DF91CF911F910F9108958F929F925F
:1023A000AF92BF92EF92FF920F931F93CF93DF9361
:1023B0008C01D62F7A01B22E07D29C0133272B3203
:1023C000310531F02D32310559F48B2D8068B82E4E
:1023D000D15011F480E061C0C801F6D197FDFACF69
:1023E000CB2DCD7F2B2D2073F9F48033E9F4AA2473
:1023F000AA94AD0E09F43EC0C801E6D197FD3AC0DB
:102400009C012F7D33272835310541F4C264D25019
:1024100089F1C801D9D197FF07C02CC0B6FE02C010
:10242000C26001C0C261DA2D812C912C540120EDD3
:10243000280F283078F0C4FF03C0B8013FD217C07E
:102440002A3040F0C6FFF9CF2F7D3FEE320F3630F5
:10245000A0F727504C2FC501B40163DF4B015C018D
:10246000C260D15051F0C801AFD197FFE0CFC1FD9C
:1024700004C0B0CF812C912C5401C7FF08C0B09488
:10248000A09490948094811C911CA11CB11C2C2FB1
:10249000B501A401C70139DF81E0DF91CF911F9120
:1024A0000F91FF90EF90BF90AF909F908F90089505
:1024B000A0E0B0E0EDE5F2E137C16C01EB015A01BB
:1024C000FC0117821682512CF601F380FE01F3FC09
:1024D0008591F3FE8191182FEF01882309F4D4C070
:1024E00090E056D1892B19F0C60142DFEDCF1532AD
:1024F00041F4FE01F3FC1591F3FE1191EF01153249
:1025000071F4C60161D197FDBDC0412F50E09C011F
:10251000332724173507C1F2B601D0D1B5C01A321E
:1025200039F4F3FC1591F3FE1191EF0101E001C0C4
:1025300000E0E12C20ED210F2A3078F402606E2DAE
:1025400070E080E090E040E2ECDEE62EFE01F3FC7D
:102550001591F3FE1191EF01EDCF01FF03C0E110E2
:1025600003C092C0EE24EA94183619F01C3651F0DC
:1025700010C0FE01F3FC1591F3FE1191EF01183626
:1025800041F408600460FE01F3FC1591F3FE119123
:10259000EF01112309F478C0612F70E085EE92E01D
:1025A000FFD0892B09F470C000FD07C0F5018080C1
:1025B0009180C50102965C0102C0812C912C1E36CF
:1025C00049F4F6014681578160E070E0202FC40194
:1025D0009CDE7ACF1336A1F401FD02C0EE24E39411
:1025E000C601F2D097FD4EC08114910429F0F40188
:1025F0008083C40101964C01EA94E110F1CF3EC002
:10260000C601B6DE97FD3EC01F3649F128F41436E8
:1026100021F1193639F125C0133771F01537E9F07A
:1026200020C08114910429F0F4016082C401019654
:102630004C01EA94EE2059F0C601C6D03C0197FD4A
:1026400006C0A6D0892B69F3B601C30137D1811426
:102650009104A1F0F401108211C0006203C0006176
:1026600001C00064202FA4016E2DC60197DE8111E8
:1026700005C0F6018381807329F406C000FD24CFD4
:10268000539422CF552019F0852D90E002C08FEF92
:102690009FEFCDB7DEB7EFE063C0A1E21A2EAA1B11
:1026A000BB1BFD010DC0AA1FBB1FEE1FFF1FA21702
:1026B000B307E407F50720F0A21BB30BE40BF50BFF
:1026C000661F771F881F991F1A9469F76095709588
:1026D000809590959B01AC01BD01CF010895052E19
:1026E00097FB16F400940FD057FD05D0D6DF07FCFA
:1026F00002D046F408C050954095309521953F4F43
:102700004F4F5F4F089590958095709561957F4FDD
:102710008F4F9F4F0895EE0FFF1F0590F491E02D0E
:1027200009942F923F924F925F926F927F928F9275
:102730009F92AF92BF92CF92DF92EF92FF920F9350
:102740001F93CF93DF93CDB7DEB7CA1BDB0B0FB65A
:10275000F894DEBF0FBECDBF09942A883988488817
:102760005F846E847D848C849B84AA84B984C884AD
:10277000DF80EE80FD800C811B81AA81B981CE0FA4
:10278000D11D0FB6F894DEBF0FBECDBFED01089589
:1027900091110BC1803219F089508550D0F70895FE
:1027A000FC010590061621F00020D9F7C00108951C
:1027B0003197CF010895FB01DC0102C001900D9219
:1027C00041505040D8F70895CF93DF93EC012B810F
:1027D00020FF33C026FF0AC02F7B2B838E819F8171
:1027E00001969F838E838A8190E029C022FF0FC0CB
:1027F000E881F9818081082E000C990B009719F46B
:1028000020622B831AC03196F983E8830EC0EA85D3
:10281000FB85099597FF09C02B81019611F080E295
:1028200001C080E1822B8B8308C02E813F812F5F06
:102830003F4F3F832E83992702C08FEF9FEFDF9199
:10284000CF9108950F931F93CF93DF93FB012381C3
:1028500021FD03C08FEF9FEF2CC022FF16C04681E1
:102860005781248135814217530744F4A081B181F7
:102870009D012F5F3F4F318320838C9326813781C9
:102880002F5F3F4F3783268314C08B01EC01FB0180
:102890000084F185E02D0995892BE1F6D801169683
:1028A0008D919C911797019617969C938E931697EE
:1028B000CE01DF91CF911F910F910895FB012381EC
:1028C00020FF12C026FD10C08F3F3FEF930761F03D
:1028D00082832F7D20642383268137812150310913
:1028E00037832683992708958FEF9FEF0895FA0184
:1028F000AA27283051F1203181F1E8946F936E7F3F
:102900006E5F7F4F8F4F9F4FAF4FB1E03ED0B4E02F
:102910003CD0670F781F891F9A1FA11D680F791F70
:102920008A1F911DA11D6A0F711D811D911DA11D81
:1029300020D009F468943F912AE0269F1124301991
:10294000305D3193DEF6CF010895462F4770405D2C
:102950004193B3E00FD0C9F7F6CF462F4F70405DDB
:102960004A3318F0495D31FD4052419302D0A9F736
:10297000EACFB4E0A6959795879577956795BA9530
:10298000C9F700976105710508959B01AC010A2EF6
:1029900006945795479537952795BA95C9F7620FCD
:1029A000731F841F951FA01D0895992788270895D8
:0429B000F894FFCFC9
:1029B40069646C65000001F3025C03019601000088
:1029C4006E6F6E616D65006D61696E001640280260
:1029D400021C040507090B000D0E00000000005343
:1029E400094D095F0959095D09570951094B0963E3
:1029F40009010003FF20FF00FF02286E756C6C299B
:102A0400004D617374657253656E644932430069A5
:102A14006E696369616E646F2070726F636573734E
:102A24006F20646520656E76696F20646F206D6128
:102A3400737465720D0A006465627567203D202514
:102A4400640D0A006275666665722025642000665E
:102A5400696E616C20646120657865637563616F7C
:102A6400206461207468726561640D0A004C6572AB
:102A740020636F6E666967757261636F6573206446
:102A84006F2049324320646F207465636C61646F06
:042A94000D0A000027
:00000001FF
